{
	"contracts/airlines.sol": {
		"Airlines": {
			"abi": [
				{
					"inputs": [],
					"stateMutability": "payable",
					"type": "constructor"
				},
				{
					"inputs": [
						{
							"internalType": "address",
							"name": "",
							"type": "address"
						}
					],
					"name": "balanceDetails",
					"outputs": [
						{
							"internalType": "uint256",
							"name": "escrow",
							"type": "uint256"
						},
						{
							"internalType": "uint256",
							"name": "status",
							"type": "uint256"
						},
						{
							"internalType": "uint256",
							"name": "hashOfDetails",
							"type": "uint256"
						}
					],
					"stateMutability": "view",
					"type": "function"
				},
				{
					"inputs": [],
					"name": "register",
					"outputs": [],
					"stateMutability": "payable",
					"type": "function"
				},
				{
					"inputs": [
						{
							"internalType": "address",
							"name": "toAirline",
							"type": "address"
						},
						{
							"internalType": "uint256",
							"name": "hashOfDetails",
							"type": "uint256"
						}
					],
					"name": "request",
					"outputs": [],
					"stateMutability": "nonpayable",
					"type": "function"
				},
				{
					"inputs": [
						{
							"internalType": "address",
							"name": "fromAirline",
							"type": "address"
						},
						{
							"internalType": "uint256",
							"name": "hashOfDetails",
							"type": "uint256"
						},
						{
							"internalType": "uint256",
							"name": "done",
							"type": "uint256"
						}
					],
					"name": "response",
					"outputs": [],
					"stateMutability": "nonpayable",
					"type": "function"
				},
				{
					"inputs": [
						{
							"internalType": "address payable",
							"name": "toAirline",
							"type": "address"
						}
					],
					"name": "settlePayment",
					"outputs": [],
					"stateMutability": "payable",
					"type": "function"
				},
				{
					"inputs": [
						{
							"internalType": "address payable",
							"name": "AirlineZ",
							"type": "address"
						}
					],
					"name": "unregister",
					"outputs": [],
					"stateMutability": "nonpayable",
					"type": "function"
				}
			],
			"devdoc": {
				"kind": "dev",
				"methods": {},
				"version": 1
			},
			"evm": {
				"assembly": "    /* \"contracts/airlines.sol\":26:1978  contract Airlines {... */\n  mstore(0x40, 0x80)\n    /* \"contracts/airlines.sol\":516:526  msg.sender */\n  caller\n    /* \"contracts/airlines.sol\":504:515  chairperson */\n  0x00\n  dup1\n    /* \"contracts/airlines.sol\":504:526  chairperson=msg.sender */\n  0x0100\n  exp\n  dup2\n  sload\n  dup2\n  0xffffffffffffffffffffffffffffffffffffffff\n  mul\n  not\n  and\n  swap1\n  dup4\n  0xffffffffffffffffffffffffffffffffffffffff\n  and\n  mul\n  or\n  swap1\n  sstore\n  pop\n    /* \"contracts/airlines.sol\":553:554  1 */\n  0x01\n    /* \"contracts/airlines.sol\":530:540  membership */\n  0x02\n    /* \"contracts/airlines.sol\":530:552  membership[msg.sender] */\n  0x00\n    /* \"contracts/airlines.sol\":541:551  msg.sender */\n  caller\n    /* \"contracts/airlines.sol\":530:552  membership[msg.sender] */\n  0xffffffffffffffffffffffffffffffffffffffff\n  and\n  0xffffffffffffffffffffffffffffffffffffffff\n  and\n  dup2\n  mstore\n  0x20\n  add\n  swap1\n  dup2\n  mstore\n  0x20\n  add\n  0x00\n  keccak256\n    /* \"contracts/airlines.sol\":530:554  membership[msg.sender]=1 */\n  dup2\n  swap1\n  sstore\n  pop\n    /* \"contracts/airlines.sol\":622:631  msg.value */\n  callvalue\n    /* \"contracts/airlines.sol\":586:600  balanceDetails */\n  0x01\n    /* \"contracts/airlines.sol\":586:612  balanceDetails[msg.sender] */\n  0x00\n    /* \"contracts/airlines.sol\":601:611  msg.sender */\n  caller\n    /* \"contracts/airlines.sol\":586:612  balanceDetails[msg.sender] */\n  0xffffffffffffffffffffffffffffffffffffffff\n  and\n  0xffffffffffffffffffffffffffffffffffffffff\n  and\n  dup2\n  mstore\n  0x20\n  add\n  swap1\n  dup2\n  mstore\n  0x20\n  add\n  0x00\n  keccak256\n    /* \"contracts/airlines.sol\":586:619  balanceDetails[msg.sender].escrow */\n  0x00\n  add\n    /* \"contracts/airlines.sol\":586:631  balanceDetails[msg.sender].escrow = msg.value */\n  dup2\n  swap1\n  sstore\n  pop\n    /* \"contracts/airlines.sol\":26:1978  contract Airlines {... */\n  dataSize(sub_0)\n  dup1\n  dataOffset(sub_0)\n  0x00\n  codecopy\n  0x00\n  return\nstop\n\nsub_0: assembly {\n        /* \"contracts/airlines.sol\":26:1978  contract Airlines {... */\n      mstore(0x40, 0x80)\n      jumpi(tag_1, lt(calldatasize, 0x04))\n      shr(0xe0, calldataload(0x00))\n      dup1\n      0x1aa3a008\n      eq\n      tag_2\n      jumpi\n      dup1\n      0x2109dc88\n      eq\n      tag_3\n      jumpi\n      dup1\n      0x2ec2c246\n      eq\n      tag_4\n      jumpi\n      dup1\n      0x6d1954e0\n      eq\n      tag_5\n      jumpi\n      dup1\n      0xa3aa1913\n      eq\n      tag_6\n      jumpi\n      dup1\n      0xc8c01a55\n      eq\n      tag_7\n      jumpi\n    tag_1:\n      0x00\n      dup1\n      revert\n        /* \"contracts/airlines.sol\":641:793  function register ( ) public payable{... */\n    tag_2:\n      tag_8\n      tag_9\n      jump\t// in\n    tag_8:\n      stop\n        /* \"contracts/airlines.sol\":1586:1977  function settlePayment (address payable toAirline) onlyMember payable... */\n    tag_3:\n      tag_10\n      0x04\n      dup1\n      calldatasize\n      sub\n      dup2\n      add\n      swap1\n      tag_11\n      swap2\n      swap1\n      tag_12\n      jump\t// in\n    tag_11:\n      tag_13\n      jump\t// in\n    tag_10:\n      stop\n        /* \"contracts/airlines.sol\":798:1100  function unregister (address payable AirlineZ) onlyChairperson public {... */\n    tag_4:\n      callvalue\n      dup1\n      iszero\n      tag_14\n      jumpi\n      0x00\n      dup1\n      revert\n    tag_14:\n      pop\n      tag_15\n      0x04\n      dup1\n      calldatasize\n      sub\n      dup2\n      add\n      swap1\n      tag_16\n      swap2\n      swap1\n      tag_12\n      jump\t// in\n    tag_16:\n      tag_17\n      jump\t// in\n    tag_15:\n      stop\n        /* \"contracts/airlines.sol\":1333:1580  function response(address fromAirline, uint hashOfDetails, uint done)... */\n    tag_5:\n      callvalue\n      dup1\n      iszero\n      tag_18\n      jumpi\n      0x00\n      dup1\n      revert\n    tag_18:\n      pop\n      tag_19\n      0x04\n      dup1\n      calldatasize\n      sub\n      dup2\n      add\n      swap1\n      tag_20\n      swap2\n      swap1\n      tag_21\n      jump\t// in\n    tag_20:\n      tag_22\n      jump\t// in\n    tag_19:\n      stop\n        /* \"contracts/airlines.sol\":181:229  mapping (address=>details) public balanceDetails */\n    tag_6:\n      callvalue\n      dup1\n      iszero\n      tag_23\n      jumpi\n      0x00\n      dup1\n      revert\n    tag_23:\n      pop\n      tag_24\n      0x04\n      dup1\n      calldatasize\n      sub\n      dup2\n      add\n      swap1\n      tag_25\n      swap2\n      swap1\n      tag_26\n      jump\t// in\n    tag_25:\n      tag_27\n      jump\t// in\n    tag_24:\n      mload(0x40)\n      tag_28\n      swap4\n      swap3\n      swap2\n      swap1\n      tag_29\n      jump\t// in\n    tag_28:\n      mload(0x40)\n      dup1\n      swap2\n      sub\n      swap1\n      return\n        /* \"contracts/airlines.sol\":1105:1328  function request(address toAirline, uint hashOfDetails) onlyMember public{... */\n    tag_7:\n      callvalue\n      dup1\n      iszero\n      tag_30\n      jumpi\n      0x00\n      dup1\n      revert\n    tag_30:\n      pop\n      tag_31\n      0x04\n      dup1\n      calldatasize\n      sub\n      dup2\n      add\n      swap1\n      tag_32\n      swap2\n      swap1\n      tag_33\n      jump\t// in\n    tag_32:\n      tag_34\n      jump\t// in\n    tag_31:\n      stop\n        /* \"contracts/airlines.sol\":641:793  function register ( ) public payable{... */\n    tag_9:\n        /* \"contracts/airlines.sol\":684:700  address AirlineA */\n      0x00\n        /* \"contracts/airlines.sol\":703:713  msg.sender */\n      caller\n        /* \"contracts/airlines.sol\":684:713  address AirlineA = msg.sender */\n      swap1\n      pop\n        /* \"contracts/airlines.sol\":738:739  1 */\n      0x01\n        /* \"contracts/airlines.sol\":717:727  membership */\n      0x02\n        /* \"contracts/airlines.sol\":717:737  membership[AirlineA] */\n      0x00\n        /* \"contracts/airlines.sol\":728:736  AirlineA */\n      dup4\n        /* \"contracts/airlines.sol\":717:737  membership[AirlineA] */\n      0xffffffffffffffffffffffffffffffffffffffff\n      and\n      0xffffffffffffffffffffffffffffffffffffffff\n      and\n      dup2\n      mstore\n      0x20\n      add\n      swap1\n      dup2\n      mstore\n      0x20\n      add\n      0x00\n      keccak256\n        /* \"contracts/airlines.sol\":717:739  membership[AirlineA]=1 */\n      dup2\n      swap1\n      sstore\n      pop\n        /* \"contracts/airlines.sol\":779:788  msg.value */\n      callvalue\n        /* \"contracts/airlines.sol\":743:757  balanceDetails */\n      0x01\n        /* \"contracts/airlines.sol\":743:769  balanceDetails[msg.sender] */\n      0x00\n        /* \"contracts/airlines.sol\":758:768  msg.sender */\n      caller\n        /* \"contracts/airlines.sol\":743:769  balanceDetails[msg.sender] */\n      0xffffffffffffffffffffffffffffffffffffffff\n      and\n      0xffffffffffffffffffffffffffffffffffffffff\n      and\n      dup2\n      mstore\n      0x20\n      add\n      swap1\n      dup2\n      mstore\n      0x20\n      add\n      0x00\n      keccak256\n        /* \"contracts/airlines.sol\":743:776  balanceDetails[msg.sender].escrow */\n      0x00\n      add\n        /* \"contracts/airlines.sol\":743:788  balanceDetails[msg.sender].escrow = msg.value */\n      dup2\n      swap1\n      sstore\n      pop\n        /* \"contracts/airlines.sol\":677:793  {... */\n      pop\n        /* \"contracts/airlines.sol\":641:793  function register ( ) public payable{... */\n      jump\t// out\n        /* \"contracts/airlines.sol\":1586:1977  function settlePayment (address payable toAirline) onlyMember payable... */\n    tag_13:\n        /* \"contracts/airlines.sol\":425:426  1 */\n      0x01\n        /* \"contracts/airlines.sol\":401:411  membership */\n      0x02\n        /* \"contracts/airlines.sol\":401:423  membership[msg.sender] */\n      0x00\n        /* \"contracts/airlines.sol\":412:422  msg.sender */\n      caller\n        /* \"contracts/airlines.sol\":401:423  membership[msg.sender] */\n      0xffffffffffffffffffffffffffffffffffffffff\n      and\n      0xffffffffffffffffffffffffffffffffffffffff\n      and\n      dup2\n      mstore\n      0x20\n      add\n      swap1\n      dup2\n      mstore\n      0x20\n      add\n      0x00\n      keccak256\n      sload\n        /* \"contracts/airlines.sol\":401:426  membership[msg.sender]==1 */\n      eq\n        /* \"contracts/airlines.sol\":393:427  require(membership[msg.sender]==1) */\n      tag_37\n      jumpi\n      0x00\n      dup1\n      revert\n    tag_37:\n        /* \"contracts/airlines.sol\":1668:1687  address fromAirline */\n      0x00\n        /* \"contracts/airlines.sol\":1688:1698  msg.sender */\n      caller\n        /* \"contracts/airlines.sol\":1668:1698  address fromAirline=msg.sender */\n      swap1\n      pop\n        /* \"contracts/airlines.sol\":1702:1710  uint amt */\n      0x00\n        /* \"contracts/airlines.sol\":1713:1722  msg.value */\n      callvalue\n        /* \"contracts/airlines.sol\":1702:1722  uint amt = msg.value */\n      swap1\n      pop\n        /* \"contracts/airlines.sol\":1798:1801  amt */\n      dup1\n        /* \"contracts/airlines.sol\":1761:1775  balanceDetails */\n      0x01\n        /* \"contracts/airlines.sol\":1761:1786  balanceDetails[toAirline] */\n      0x00\n        /* \"contracts/airlines.sol\":1776:1785  toAirline */\n      dup6\n        /* \"contracts/airlines.sol\":1761:1786  balanceDetails[toAirline] */\n      0xffffffffffffffffffffffffffffffffffffffff\n      and\n      0xffffffffffffffffffffffffffffffffffffffff\n      and\n      dup2\n      mstore\n      0x20\n      add\n      swap1\n      dup2\n      mstore\n      0x20\n      add\n      0x00\n      keccak256\n        /* \"contracts/airlines.sol\":1761:1793  balanceDetails[toAirline].escrow */\n      0x00\n      add\n      sload\n        /* \"contracts/airlines.sol\":1761:1801  balanceDetails[toAirline].escrow... */\n      tag_39\n      swap2\n      swap1\n      tag_40\n      jump\t// in\n    tag_39:\n        /* \"contracts/airlines.sol\":1726:1740  balanceDetails */\n      0x01\n        /* \"contracts/airlines.sol\":1726:1751  balanceDetails[toAirline] */\n      0x00\n        /* \"contracts/airlines.sol\":1741:1750  toAirline */\n      dup6\n        /* \"contracts/airlines.sol\":1726:1751  balanceDetails[toAirline] */\n      0xffffffffffffffffffffffffffffffffffffffff\n      and\n      0xffffffffffffffffffffffffffffffffffffffff\n      and\n      dup2\n      mstore\n      0x20\n      add\n      swap1\n      dup2\n      mstore\n      0x20\n      add\n      0x00\n      keccak256\n        /* \"contracts/airlines.sol\":1726:1758  balanceDetails[toAirline].escrow */\n      0x00\n      add\n        /* \"contracts/airlines.sol\":1726:1801  balanceDetails[toAirline].escrow = balanceDetails[toAirline].escrow... */\n      dup2\n      swap1\n      sstore\n      pop\n        /* \"contracts/airlines.sol\":1881:1884  amt */\n      dup1\n        /* \"contracts/airlines.sol\":1844:1858  balanceDetails */\n      0x01\n        /* \"contracts/airlines.sol\":1844:1871  balanceDetails[fromAirline] */\n      0x00\n        /* \"contracts/airlines.sol\":1859:1870  fromAirline */\n      dup5\n        /* \"contracts/airlines.sol\":1844:1871  balanceDetails[fromAirline] */\n      0xffffffffffffffffffffffffffffffffffffffff\n      and\n      0xffffffffffffffffffffffffffffffffffffffff\n      and\n      dup2\n      mstore\n      0x20\n      add\n      swap1\n      dup2\n      mstore\n      0x20\n      add\n      0x00\n      keccak256\n        /* \"contracts/airlines.sol\":1844:1878  balanceDetails[fromAirline].escrow */\n      0x00\n      add\n      sload\n        /* \"contracts/airlines.sol\":1844:1884  balanceDetails[fromAirline].escrow - amt */\n      tag_41\n      swap2\n      swap1\n      tag_42\n      jump\t// in\n    tag_41:\n        /* \"contracts/airlines.sol\":1805:1819  balanceDetails */\n      0x01\n        /* \"contracts/airlines.sol\":1805:1832  balanceDetails[fromAirline] */\n      0x00\n        /* \"contracts/airlines.sol\":1820:1831  fromAirline */\n      dup5\n        /* \"contracts/airlines.sol\":1805:1832  balanceDetails[fromAirline] */\n      0xffffffffffffffffffffffffffffffffffffffff\n      and\n      0xffffffffffffffffffffffffffffffffffffffff\n      and\n      dup2\n      mstore\n      0x20\n      add\n      swap1\n      dup2\n      mstore\n      0x20\n      add\n      0x00\n      keccak256\n        /* \"contracts/airlines.sol\":1805:1839  balanceDetails[fromAirline].escrow */\n      0x00\n      add\n        /* \"contracts/airlines.sol\":1805:1884  balanceDetails[fromAirline].escrow =... */\n      dup2\n      swap1\n      sstore\n      pop\n        /* \"contracts/airlines.sol\":1949:1958  toAirline */\n      dup3\n        /* \"contracts/airlines.sol\":1949:1967  toAirline.transfer */\n      0xffffffffffffffffffffffffffffffffffffffff\n      and\n        /* \"contracts/airlines.sol\":1949:1972  toAirline.transfer(amt) */\n      0x08fc\n        /* \"contracts/airlines.sol\":1968:1971  amt */\n      dup3\n        /* \"contracts/airlines.sol\":1949:1972  toAirline.transfer(amt) */\n      swap1\n      dup2\n      iszero\n      mul\n      swap1\n      mload(0x40)\n      0x00\n      mload(0x40)\n      dup1\n      dup4\n      sub\n      dup2\n      dup6\n      dup9\n      dup9\n      call\n      swap4\n      pop\n      pop\n      pop\n      pop\n      iszero\n      dup1\n      iszero\n      tag_44\n      jumpi\n      returndatasize\n      0x00\n      dup1\n      returndatacopy\n      revert(0x00, returndatasize)\n    tag_44:\n      pop\n        /* \"contracts/airlines.sol\":1664:1977  {... */\n      pop\n      pop\n        /* \"contracts/airlines.sol\":1586:1977  function settlePayment (address payable toAirline) onlyMember payable... */\n      pop\n      jump\t// out\n        /* \"contracts/airlines.sol\":798:1100  function unregister (address payable AirlineZ) onlyChairperson public {... */\n    tag_17:\n        /* \"contracts/airlines.sol\":345:356  chairperson */\n      0x00\n      dup1\n      sload\n      swap1\n      0x0100\n      exp\n      swap1\n      div\n      0xffffffffffffffffffffffffffffffffffffffff\n      and\n        /* \"contracts/airlines.sol\":333:356  msg.sender==chairperson */\n      0xffffffffffffffffffffffffffffffffffffffff\n      and\n        /* \"contracts/airlines.sol\":333:343  msg.sender */\n      caller\n        /* \"contracts/airlines.sol\":333:356  msg.sender==chairperson */\n      0xffffffffffffffffffffffffffffffffffffffff\n      and\n      eq\n        /* \"contracts/airlines.sol\":325:357  require(msg.sender==chairperson) */\n      tag_46\n      jumpi\n      0x00\n      dup1\n      revert\n    tag_46:\n        /* \"contracts/airlines.sol\":888:898  msg.sender */\n      caller\n        /* \"contracts/airlines.sol\":875:898  chairperson!=msg.sender */\n      0xffffffffffffffffffffffffffffffffffffffff\n      and\n        /* \"contracts/airlines.sol\":875:886  chairperson */\n      0x00\n      dup1\n      sload\n      swap1\n      0x0100\n      exp\n      swap1\n      div\n      0xffffffffffffffffffffffffffffffffffffffff\n      and\n        /* \"contracts/airlines.sol\":875:898  chairperson!=msg.sender */\n      0xffffffffffffffffffffffffffffffffffffffff\n      and\n      eq\n        /* \"contracts/airlines.sol\":872:914  if(chairperson!=msg.sender){... */\n      tag_48\n      jumpi\n        /* \"contracts/airlines.sol\":903:911  revert() */\n      0x00\n      dup1\n      revert\n        /* \"contracts/airlines.sol\":872:914  if(chairperson!=msg.sender){... */\n    tag_48:\n        /* \"contracts/airlines.sol\":938:939  0 */\n      0x00\n        /* \"contracts/airlines.sol\":917:927  membership */\n      0x02\n        /* \"contracts/airlines.sol\":917:937  membership[AirlineZ] */\n      0x00\n        /* \"contracts/airlines.sol\":928:936  AirlineZ */\n      dup4\n        /* \"contracts/airlines.sol\":917:937  membership[AirlineZ] */\n      0xffffffffffffffffffffffffffffffffffffffff\n      and\n      0xffffffffffffffffffffffffffffffffffffffff\n      and\n      dup2\n      mstore\n      0x20\n      add\n      swap1\n      dup2\n      mstore\n      0x20\n      add\n      0x00\n      keccak256\n        /* \"contracts/airlines.sol\":917:939  membership[AirlineZ]=0 */\n      dup2\n      swap1\n      sstore\n      pop\n        /* \"contracts/airlines.sol\":1006:1014  AirlineZ */\n      dup1\n        /* \"contracts/airlines.sol\":1006:1023  AirlineZ.transfer */\n      0xffffffffffffffffffffffffffffffffffffffff\n      and\n        /* \"contracts/airlines.sol\":1006:1056  AirlineZ.transfer(balanceDetails[AirlineZ].escrow) */\n      0x08fc\n        /* \"contracts/airlines.sol\":1024:1038  balanceDetails */\n      0x01\n        /* \"contracts/airlines.sol\":1024:1048  balanceDetails[AirlineZ] */\n      0x00\n        /* \"contracts/airlines.sol\":1039:1047  AirlineZ */\n      dup5\n        /* \"contracts/airlines.sol\":1024:1048  balanceDetails[AirlineZ] */\n      0xffffffffffffffffffffffffffffffffffffffff\n      and\n      0xffffffffffffffffffffffffffffffffffffffff\n      and\n      dup2\n      mstore\n      0x20\n      add\n      swap1\n      dup2\n      mstore\n      0x20\n      add\n      0x00\n      keccak256\n        /* \"contracts/airlines.sol\":1024:1055  balanceDetails[AirlineZ].escrow */\n      0x00\n      add\n      sload\n        /* \"contracts/airlines.sol\":1006:1056  AirlineZ.transfer(balanceDetails[AirlineZ].escrow) */\n      swap1\n      dup2\n      iszero\n      mul\n      swap1\n      mload(0x40)\n      0x00\n      mload(0x40)\n      dup1\n      dup4\n      sub\n      dup2\n      dup6\n      dup9\n      dup9\n      call\n      swap4\n      pop\n      pop\n      pop\n      pop\n      iszero\n      dup1\n      iszero\n      tag_50\n      jumpi\n      returndatasize\n      0x00\n      dup1\n      returndatacopy\n      revert(0x00, returndatasize)\n    tag_50:\n      pop\n        /* \"contracts/airlines.sol\":1094:1095  0 */\n      0x00\n        /* \"contracts/airlines.sol\":1060:1074  balanceDetails */\n      0x01\n        /* \"contracts/airlines.sol\":1060:1084  balanceDetails[AirlineZ] */\n      0x00\n        /* \"contracts/airlines.sol\":1075:1083  AirlineZ */\n      dup4\n        /* \"contracts/airlines.sol\":1060:1084  balanceDetails[AirlineZ] */\n      0xffffffffffffffffffffffffffffffffffffffff\n      and\n      0xffffffffffffffffffffffffffffffffffffffff\n      and\n      dup2\n      mstore\n      0x20\n      add\n      swap1\n      dup2\n      mstore\n      0x20\n      add\n      0x00\n      keccak256\n        /* \"contracts/airlines.sol\":1060:1091  balanceDetails[AirlineZ].escrow */\n      0x00\n      add\n        /* \"contracts/airlines.sol\":1060:1095  balanceDetails[AirlineZ].escrow = 0 */\n      dup2\n      swap1\n      sstore\n      pop\n        /* \"contracts/airlines.sol\":798:1100  function unregister (address payable AirlineZ) onlyChairperson public {... */\n      pop\n      jump\t// out\n        /* \"contracts/airlines.sol\":1333:1580  function response(address fromAirline, uint hashOfDetails, uint done)... */\n    tag_22:\n        /* \"contracts/airlines.sol\":425:426  1 */\n      0x01\n        /* \"contracts/airlines.sol\":401:411  membership */\n      0x02\n        /* \"contracts/airlines.sol\":401:423  membership[msg.sender] */\n      0x00\n        /* \"contracts/airlines.sol\":412:422  msg.sender */\n      caller\n        /* \"contracts/airlines.sol\":401:423  membership[msg.sender] */\n      0xffffffffffffffffffffffffffffffffffffffff\n      and\n      0xffffffffffffffffffffffffffffffffffffffff\n      and\n      dup2\n      mstore\n      0x20\n      add\n      swap1\n      dup2\n      mstore\n      0x20\n      add\n      0x00\n      keccak256\n      sload\n        /* \"contracts/airlines.sol\":401:426  membership[msg.sender]==1 */\n      eq\n        /* \"contracts/airlines.sol\":393:427  require(membership[msg.sender]==1) */\n      tag_52\n      jumpi\n      0x00\n      dup1\n      revert\n    tag_52:\n        /* \"contracts/airlines.sol\":1456:1457  1 */\n      0x01\n        /* \"contracts/airlines.sol\":1431:1441  membership */\n      0x02\n        /* \"contracts/airlines.sol\":1431:1454  membership[fromAirline] */\n      0x00\n        /* \"contracts/airlines.sol\":1442:1453  fromAirline */\n      dup6\n        /* \"contracts/airlines.sol\":1431:1454  membership[fromAirline] */\n      0xffffffffffffffffffffffffffffffffffffffff\n      and\n      0xffffffffffffffffffffffffffffffffffffffff\n      and\n      dup2\n      mstore\n      0x20\n      add\n      swap1\n      dup2\n      mstore\n      0x20\n      add\n      0x00\n      keccak256\n      sload\n        /* \"contracts/airlines.sol\":1431:1457  membership[fromAirline]!=1 */\n      eq\n        /* \"contracts/airlines.sol\":1428:1473  if(membership[fromAirline]!=1){... */\n      tag_54\n      jumpi\n        /* \"contracts/airlines.sol\":1462:1470  revert() */\n      0x00\n      dup1\n      revert\n        /* \"contracts/airlines.sol\":1428:1473  if(membership[fromAirline]!=1){... */\n    tag_54:\n        /* \"contracts/airlines.sol\":1510:1514  done */\n      dup1\n        /* \"contracts/airlines.sol\":1476:1490  balanceDetails */\n      0x01\n        /* \"contracts/airlines.sol\":1476:1502  balanceDetails[msg.sender] */\n      0x00\n        /* \"contracts/airlines.sol\":1491:1501  msg.sender */\n      caller\n        /* \"contracts/airlines.sol\":1476:1502  balanceDetails[msg.sender] */\n      0xffffffffffffffffffffffffffffffffffffffff\n      and\n      0xffffffffffffffffffffffffffffffffffffffff\n      and\n      dup2\n      mstore\n      0x20\n      add\n      swap1\n      dup2\n      mstore\n      0x20\n      add\n      0x00\n      keccak256\n        /* \"contracts/airlines.sol\":1476:1509  balanceDetails[msg.sender].status */\n      0x01\n      add\n        /* \"contracts/airlines.sol\":1476:1514  balanceDetails[msg.sender].status=done */\n      dup2\n      swap1\n      sstore\n      pop\n        /* \"contracts/airlines.sol\":1562:1575  hashOfDetails */\n      dup2\n        /* \"contracts/airlines.sol\":1518:1532  balanceDetails */\n      0x01\n        /* \"contracts/airlines.sol\":1518:1545  balanceDetails[fromAirline] */\n      0x00\n        /* \"contracts/airlines.sol\":1533:1544  fromAirline */\n      dup6\n        /* \"contracts/airlines.sol\":1518:1545  balanceDetails[fromAirline] */\n      0xffffffffffffffffffffffffffffffffffffffff\n      and\n      0xffffffffffffffffffffffffffffffffffffffff\n      and\n      dup2\n      mstore\n      0x20\n      add\n      swap1\n      dup2\n      mstore\n      0x20\n      add\n      0x00\n      keccak256\n        /* \"contracts/airlines.sol\":1518:1559  balanceDetails[fromAirline].hashOfDetails */\n      0x02\n      add\n        /* \"contracts/airlines.sol\":1518:1575  balanceDetails[fromAirline].hashOfDetails = hashOfDetails */\n      dup2\n      swap1\n      sstore\n      pop\n        /* \"contracts/airlines.sol\":1333:1580  function response(address fromAirline, uint hashOfDetails, uint done)... */\n      pop\n      pop\n      pop\n      jump\t// out\n        /* \"contracts/airlines.sol\":181:229  mapping (address=>details) public balanceDetails */\n    tag_27:\n      mstore(0x20, 0x01)\n      dup1\n      0x00\n      mstore\n      keccak256(0x00, 0x40)\n      0x00\n      swap2\n      pop\n      swap1\n      pop\n      dup1\n      0x00\n      add\n      sload\n      swap1\n      dup1\n      0x01\n      add\n      sload\n      swap1\n      dup1\n      0x02\n      add\n      sload\n      swap1\n      pop\n      dup4\n      jump\t// out\n        /* \"contracts/airlines.sol\":1105:1328  function request(address toAirline, uint hashOfDetails) onlyMember public{... */\n    tag_34:\n        /* \"contracts/airlines.sol\":425:426  1 */\n      0x01\n        /* \"contracts/airlines.sol\":401:411  membership */\n      0x02\n        /* \"contracts/airlines.sol\":401:423  membership[msg.sender] */\n      0x00\n        /* \"contracts/airlines.sol\":412:422  msg.sender */\n      caller\n        /* \"contracts/airlines.sol\":401:423  membership[msg.sender] */\n      0xffffffffffffffffffffffffffffffffffffffff\n      and\n      0xffffffffffffffffffffffffffffffffffffffff\n      and\n      dup2\n      mstore\n      0x20\n      add\n      swap1\n      dup2\n      mstore\n      0x20\n      add\n      0x00\n      keccak256\n      sload\n        /* \"contracts/airlines.sol\":401:426  membership[msg.sender]==1 */\n      eq\n        /* \"contracts/airlines.sol\":393:427  require(membership[msg.sender]==1) */\n      tag_56\n      jumpi\n      0x00\n      dup1\n      revert\n    tag_56:\n        /* \"contracts/airlines.sol\":1208:1209  1 */\n      0x01\n        /* \"contracts/airlines.sol\":1185:1195  membership */\n      0x02\n        /* \"contracts/airlines.sol\":1185:1206  membership[toAirline] */\n      0x00\n        /* \"contracts/airlines.sol\":1196:1205  toAirline */\n      dup5\n        /* \"contracts/airlines.sol\":1185:1206  membership[toAirline] */\n      0xffffffffffffffffffffffffffffffffffffffff\n      and\n      0xffffffffffffffffffffffffffffffffffffffff\n      and\n      dup2\n      mstore\n      0x20\n      add\n      swap1\n      dup2\n      mstore\n      0x20\n      add\n      0x00\n      keccak256\n      sload\n        /* \"contracts/airlines.sol\":1185:1209  membership[toAirline]!=1 */\n      eq\n        /* \"contracts/airlines.sol\":1182:1225  if(membership[toAirline]!=1){... */\n      tag_58\n      jumpi\n        /* \"contracts/airlines.sol\":1214:1222  revert() */\n      0x00\n      dup1\n      revert\n        /* \"contracts/airlines.sol\":1182:1225  if(membership[toAirline]!=1){... */\n    tag_58:\n        /* \"contracts/airlines.sol\":1262:1263  0 */\n      0x00\n        /* \"contracts/airlines.sol\":1228:1242  balanceDetails */\n      0x01\n        /* \"contracts/airlines.sol\":1228:1254  balanceDetails[msg.sender] */\n      0x00\n        /* \"contracts/airlines.sol\":1243:1253  msg.sender */\n      caller\n        /* \"contracts/airlines.sol\":1228:1254  balanceDetails[msg.sender] */\n      0xffffffffffffffffffffffffffffffffffffffff\n      and\n      0xffffffffffffffffffffffffffffffffffffffff\n      and\n      dup2\n      mstore\n      0x20\n      add\n      swap1\n      dup2\n      mstore\n      0x20\n      add\n      0x00\n      keccak256\n        /* \"contracts/airlines.sol\":1228:1261  balanceDetails[msg.sender].status */\n      0x01\n      add\n        /* \"contracts/airlines.sol\":1228:1263  balanceDetails[msg.sender].status=0 */\n      dup2\n      swap1\n      sstore\n      pop\n        /* \"contracts/airlines.sol\":1310:1323  hashOfDetails */\n      dup1\n        /* \"contracts/airlines.sol\":1267:1281  balanceDetails */\n      0x01\n        /* \"contracts/airlines.sol\":1267:1293  balanceDetails[msg.sender] */\n      0x00\n        /* \"contracts/airlines.sol\":1282:1292  msg.sender */\n      caller\n        /* \"contracts/airlines.sol\":1267:1293  balanceDetails[msg.sender] */\n      0xffffffffffffffffffffffffffffffffffffffff\n      and\n      0xffffffffffffffffffffffffffffffffffffffff\n      and\n      dup2\n      mstore\n      0x20\n      add\n      swap1\n      dup2\n      mstore\n      0x20\n      add\n      0x00\n      keccak256\n        /* \"contracts/airlines.sol\":1267:1307  balanceDetails[msg.sender].hashOfDetails */\n      0x02\n      add\n        /* \"contracts/airlines.sol\":1267:1323  balanceDetails[msg.sender].hashOfDetails = hashOfDetails */\n      dup2\n      swap1\n      sstore\n      pop\n        /* \"contracts/airlines.sol\":1105:1328  function request(address toAirline, uint hashOfDetails) onlyMember public{... */\n      pop\n      pop\n      jump\t// out\n        /* \"#utility.yul\":88:205   */\n    tag_60:\n        /* \"#utility.yul\":197:198   */\n      0x00\n        /* \"#utility.yul\":194:195   */\n      dup1\n        /* \"#utility.yul\":187:199   */\n      revert\n        /* \"#utility.yul\":334:460   */\n    tag_62:\n        /* \"#utility.yul\":371:378   */\n      0x00\n        /* \"#utility.yul\":411:453   */\n      0xffffffffffffffffffffffffffffffffffffffff\n        /* \"#utility.yul\":404:409   */\n      dup3\n        /* \"#utility.yul\":400:454   */\n      and\n        /* \"#utility.yul\":389:454   */\n      swap1\n      pop\n        /* \"#utility.yul\":334:460   */\n      swap2\n      swap1\n      pop\n      jump\t// out\n        /* \"#utility.yul\":466:570   */\n    tag_63:\n        /* \"#utility.yul\":511:518   */\n      0x00\n        /* \"#utility.yul\":540:564   */\n      tag_80\n        /* \"#utility.yul\":558:563   */\n      dup3\n        /* \"#utility.yul\":540:564   */\n      tag_62\n      jump\t// in\n    tag_80:\n        /* \"#utility.yul\":529:564   */\n      swap1\n      pop\n        /* \"#utility.yul\":466:570   */\n      swap2\n      swap1\n      pop\n      jump\t// out\n        /* \"#utility.yul\":576:714   */\n    tag_64:\n        /* \"#utility.yul\":657:689   */\n      tag_82\n        /* \"#utility.yul\":683:688   */\n      dup2\n        /* \"#utility.yul\":657:689   */\n      tag_63\n      jump\t// in\n    tag_82:\n        /* \"#utility.yul\":650:655   */\n      dup2\n        /* \"#utility.yul\":647:690   */\n      eq\n        /* \"#utility.yul\":637:708   */\n      tag_83\n      jumpi\n        /* \"#utility.yul\":704:705   */\n      0x00\n        /* \"#utility.yul\":701:702   */\n      dup1\n        /* \"#utility.yul\":694:706   */\n      revert\n        /* \"#utility.yul\":637:708   */\n    tag_83:\n        /* \"#utility.yul\":576:714   */\n      pop\n      jump\t// out\n        /* \"#utility.yul\":720:875   */\n    tag_65:\n        /* \"#utility.yul\":774:779   */\n      0x00\n        /* \"#utility.yul\":812:818   */\n      dup2\n        /* \"#utility.yul\":799:819   */\n      calldataload\n        /* \"#utility.yul\":790:819   */\n      swap1\n      pop\n        /* \"#utility.yul\":828:869   */\n      tag_85\n        /* \"#utility.yul\":863:868   */\n      dup2\n        /* \"#utility.yul\":828:869   */\n      tag_64\n      jump\t// in\n    tag_85:\n        /* \"#utility.yul\":720:875   */\n      swap3\n      swap2\n      pop\n      pop\n      jump\t// out\n        /* \"#utility.yul\":881:1226   */\n    tag_12:\n        /* \"#utility.yul\":948:954   */\n      0x00\n        /* \"#utility.yul\":997:999   */\n      0x20\n        /* \"#utility.yul\":985:994   */\n      dup3\n        /* \"#utility.yul\":976:983   */\n      dup5\n        /* \"#utility.yul\":972:995   */\n      sub\n        /* \"#utility.yul\":968:1000   */\n      slt\n        /* \"#utility.yul\":965:1084   */\n      iszero\n      tag_87\n      jumpi\n        /* \"#utility.yul\":1003:1082   */\n      tag_88\n      tag_60\n      jump\t// in\n    tag_88:\n        /* \"#utility.yul\":965:1084   */\n    tag_87:\n        /* \"#utility.yul\":1123:1124   */\n      0x00\n        /* \"#utility.yul\":1148:1209   */\n      tag_89\n        /* \"#utility.yul\":1201:1208   */\n      dup5\n        /* \"#utility.yul\":1192:1198   */\n      dup3\n        /* \"#utility.yul\":1181:1190   */\n      dup6\n        /* \"#utility.yul\":1177:1199   */\n      add\n        /* \"#utility.yul\":1148:1209   */\n      tag_65\n      jump\t// in\n    tag_89:\n        /* \"#utility.yul\":1138:1209   */\n      swap2\n      pop\n        /* \"#utility.yul\":1094:1219   */\n      pop\n        /* \"#utility.yul\":881:1226   */\n      swap3\n      swap2\n      pop\n      pop\n      jump\t// out\n        /* \"#utility.yul\":1232:1328   */\n    tag_66:\n        /* \"#utility.yul\":1269:1276   */\n      0x00\n        /* \"#utility.yul\":1298:1322   */\n      tag_91\n        /* \"#utility.yul\":1316:1321   */\n      dup3\n        /* \"#utility.yul\":1298:1322   */\n      tag_62\n      jump\t// in\n    tag_91:\n        /* \"#utility.yul\":1287:1322   */\n      swap1\n      pop\n        /* \"#utility.yul\":1232:1328   */\n      swap2\n      swap1\n      pop\n      jump\t// out\n        /* \"#utility.yul\":1334:1456   */\n    tag_67:\n        /* \"#utility.yul\":1407:1431   */\n      tag_93\n        /* \"#utility.yul\":1425:1430   */\n      dup2\n        /* \"#utility.yul\":1407:1431   */\n      tag_66\n      jump\t// in\n    tag_93:\n        /* \"#utility.yul\":1400:1405   */\n      dup2\n        /* \"#utility.yul\":1397:1432   */\n      eq\n        /* \"#utility.yul\":1387:1450   */\n      tag_94\n      jumpi\n        /* \"#utility.yul\":1446:1447   */\n      0x00\n        /* \"#utility.yul\":1443:1444   */\n      dup1\n        /* \"#utility.yul\":1436:1448   */\n      revert\n        /* \"#utility.yul\":1387:1450   */\n    tag_94:\n        /* \"#utility.yul\":1334:1456   */\n      pop\n      jump\t// out\n        /* \"#utility.yul\":1462:1601   */\n    tag_68:\n        /* \"#utility.yul\":1508:1513   */\n      0x00\n        /* \"#utility.yul\":1546:1552   */\n      dup2\n        /* \"#utility.yul\":1533:1553   */\n      calldataload\n        /* \"#utility.yul\":1524:1553   */\n      swap1\n      pop\n        /* \"#utility.yul\":1562:1595   */\n      tag_96\n        /* \"#utility.yul\":1589:1594   */\n      dup2\n        /* \"#utility.yul\":1562:1595   */\n      tag_67\n      jump\t// in\n    tag_96:\n        /* \"#utility.yul\":1462:1601   */\n      swap3\n      swap2\n      pop\n      pop\n      jump\t// out\n        /* \"#utility.yul\":1607:1684   */\n    tag_69:\n        /* \"#utility.yul\":1644:1651   */\n      0x00\n        /* \"#utility.yul\":1673:1678   */\n      dup2\n        /* \"#utility.yul\":1662:1678   */\n      swap1\n      pop\n        /* \"#utility.yul\":1607:1684   */\n      swap2\n      swap1\n      pop\n      jump\t// out\n        /* \"#utility.yul\":1690:1812   */\n    tag_70:\n        /* \"#utility.yul\":1763:1787   */\n      tag_99\n        /* \"#utility.yul\":1781:1786   */\n      dup2\n        /* \"#utility.yul\":1763:1787   */\n      tag_69\n      jump\t// in\n    tag_99:\n        /* \"#utility.yul\":1756:1761   */\n      dup2\n        /* \"#utility.yul\":1753:1788   */\n      eq\n        /* \"#utility.yul\":1743:1806   */\n      tag_100\n      jumpi\n        /* \"#utility.yul\":1802:1803   */\n      0x00\n        /* \"#utility.yul\":1799:1800   */\n      dup1\n        /* \"#utility.yul\":1792:1804   */\n      revert\n        /* \"#utility.yul\":1743:1806   */\n    tag_100:\n        /* \"#utility.yul\":1690:1812   */\n      pop\n      jump\t// out\n        /* \"#utility.yul\":1818:1957   */\n    tag_71:\n        /* \"#utility.yul\":1864:1869   */\n      0x00\n        /* \"#utility.yul\":1902:1908   */\n      dup2\n        /* \"#utility.yul\":1889:1909   */\n      calldataload\n        /* \"#utility.yul\":1880:1909   */\n      swap1\n      pop\n        /* \"#utility.yul\":1918:1951   */\n      tag_102\n        /* \"#utility.yul\":1945:1950   */\n      dup2\n        /* \"#utility.yul\":1918:1951   */\n      tag_70\n      jump\t// in\n    tag_102:\n        /* \"#utility.yul\":1818:1957   */\n      swap3\n      swap2\n      pop\n      pop\n      jump\t// out\n        /* \"#utility.yul\":1963:2582   */\n    tag_21:\n        /* \"#utility.yul\":2040:2046   */\n      0x00\n        /* \"#utility.yul\":2048:2054   */\n      dup1\n        /* \"#utility.yul\":2056:2062   */\n      0x00\n        /* \"#utility.yul\":2105:2107   */\n      0x60\n        /* \"#utility.yul\":2093:2102   */\n      dup5\n        /* \"#utility.yul\":2084:2091   */\n      dup7\n        /* \"#utility.yul\":2080:2103   */\n      sub\n        /* \"#utility.yul\":2076:2108   */\n      slt\n        /* \"#utility.yul\":2073:2192   */\n      iszero\n      tag_104\n      jumpi\n        /* \"#utility.yul\":2111:2190   */\n      tag_105\n      tag_60\n      jump\t// in\n    tag_105:\n        /* \"#utility.yul\":2073:2192   */\n    tag_104:\n        /* \"#utility.yul\":2231:2232   */\n      0x00\n        /* \"#utility.yul\":2256:2309   */\n      tag_106\n        /* \"#utility.yul\":2301:2308   */\n      dup7\n        /* \"#utility.yul\":2292:2298   */\n      dup3\n        /* \"#utility.yul\":2281:2290   */\n      dup8\n        /* \"#utility.yul\":2277:2299   */\n      add\n        /* \"#utility.yul\":2256:2309   */\n      tag_68\n      jump\t// in\n    tag_106:\n        /* \"#utility.yul\":2246:2309   */\n      swap4\n      pop\n        /* \"#utility.yul\":2202:2319   */\n      pop\n        /* \"#utility.yul\":2358:2360   */\n      0x20\n        /* \"#utility.yul\":2384:2437   */\n      tag_107\n        /* \"#utility.yul\":2429:2436   */\n      dup7\n        /* \"#utility.yul\":2420:2426   */\n      dup3\n        /* \"#utility.yul\":2409:2418   */\n      dup8\n        /* \"#utility.yul\":2405:2427   */\n      add\n        /* \"#utility.yul\":2384:2437   */\n      tag_71\n      jump\t// in\n    tag_107:\n        /* \"#utility.yul\":2374:2437   */\n      swap3\n      pop\n        /* \"#utility.yul\":2329:2447   */\n      pop\n        /* \"#utility.yul\":2486:2488   */\n      0x40\n        /* \"#utility.yul\":2512:2565   */\n      tag_108\n        /* \"#utility.yul\":2557:2564   */\n      dup7\n        /* \"#utility.yul\":2548:2554   */\n      dup3\n        /* \"#utility.yul\":2537:2546   */\n      dup8\n        /* \"#utility.yul\":2533:2555   */\n      add\n        /* \"#utility.yul\":2512:2565   */\n      tag_71\n      jump\t// in\n    tag_108:\n        /* \"#utility.yul\":2502:2565   */\n      swap2\n      pop\n        /* \"#utility.yul\":2457:2575   */\n      pop\n        /* \"#utility.yul\":1963:2582   */\n      swap3\n      pop\n      swap3\n      pop\n      swap3\n      jump\t// out\n        /* \"#utility.yul\":2588:2917   */\n    tag_26:\n        /* \"#utility.yul\":2647:2653   */\n      0x00\n        /* \"#utility.yul\":2696:2698   */\n      0x20\n        /* \"#utility.yul\":2684:2693   */\n      dup3\n        /* \"#utility.yul\":2675:2682   */\n      dup5\n        /* \"#utility.yul\":2671:2694   */\n      sub\n        /* \"#utility.yul\":2667:2699   */\n      slt\n        /* \"#utility.yul\":2664:2783   */\n      iszero\n      tag_110\n      jumpi\n        /* \"#utility.yul\":2702:2781   */\n      tag_111\n      tag_60\n      jump\t// in\n    tag_111:\n        /* \"#utility.yul\":2664:2783   */\n    tag_110:\n        /* \"#utility.yul\":2822:2823   */\n      0x00\n        /* \"#utility.yul\":2847:2900   */\n      tag_112\n        /* \"#utility.yul\":2892:2899   */\n      dup5\n        /* \"#utility.yul\":2883:2889   */\n      dup3\n        /* \"#utility.yul\":2872:2881   */\n      dup6\n        /* \"#utility.yul\":2868:2890   */\n      add\n        /* \"#utility.yul\":2847:2900   */\n      tag_68\n      jump\t// in\n    tag_112:\n        /* \"#utility.yul\":2837:2900   */\n      swap2\n      pop\n        /* \"#utility.yul\":2793:2910   */\n      pop\n        /* \"#utility.yul\":2588:2917   */\n      swap3\n      swap2\n      pop\n      pop\n      jump\t// out\n        /* \"#utility.yul\":2923:3041   */\n    tag_72:\n        /* \"#utility.yul\":3010:3034   */\n      tag_114\n        /* \"#utility.yul\":3028:3033   */\n      dup2\n        /* \"#utility.yul\":3010:3034   */\n      tag_69\n      jump\t// in\n    tag_114:\n        /* \"#utility.yul\":3005:3008   */\n      dup3\n        /* \"#utility.yul\":2998:3035   */\n      mstore\n        /* \"#utility.yul\":2923:3041   */\n      pop\n      pop\n      jump\t// out\n        /* \"#utility.yul\":3047:3489   */\n    tag_29:\n        /* \"#utility.yul\":3196:3200   */\n      0x00\n        /* \"#utility.yul\":3234:3236   */\n      0x60\n        /* \"#utility.yul\":3223:3232   */\n      dup3\n        /* \"#utility.yul\":3219:3237   */\n      add\n        /* \"#utility.yul\":3211:3237   */\n      swap1\n      pop\n        /* \"#utility.yul\":3247:3318   */\n      tag_116\n        /* \"#utility.yul\":3315:3316   */\n      0x00\n        /* \"#utility.yul\":3304:3313   */\n      dup4\n        /* \"#utility.yul\":3300:3317   */\n      add\n        /* \"#utility.yul\":3291:3297   */\n      dup7\n        /* \"#utility.yul\":3247:3318   */\n      tag_72\n      jump\t// in\n    tag_116:\n        /* \"#utility.yul\":3328:3400   */\n      tag_117\n        /* \"#utility.yul\":3396:3398   */\n      0x20\n        /* \"#utility.yul\":3385:3394   */\n      dup4\n        /* \"#utility.yul\":3381:3399   */\n      add\n        /* \"#utility.yul\":3372:3378   */\n      dup6\n        /* \"#utility.yul\":3328:3400   */\n      tag_72\n      jump\t// in\n    tag_117:\n        /* \"#utility.yul\":3410:3482   */\n      tag_118\n        /* \"#utility.yul\":3478:3480   */\n      0x40\n        /* \"#utility.yul\":3467:3476   */\n      dup4\n        /* \"#utility.yul\":3463:3481   */\n      add\n        /* \"#utility.yul\":3454:3460   */\n      dup5\n        /* \"#utility.yul\":3410:3482   */\n      tag_72\n      jump\t// in\n    tag_118:\n        /* \"#utility.yul\":3047:3489   */\n      swap5\n      swap4\n      pop\n      pop\n      pop\n      pop\n      jump\t// out\n        /* \"#utility.yul\":3495:3969   */\n    tag_33:\n        /* \"#utility.yul\":3563:3569   */\n      0x00\n        /* \"#utility.yul\":3571:3577   */\n      dup1\n        /* \"#utility.yul\":3620:3622   */\n      0x40\n        /* \"#utility.yul\":3608:3617   */\n      dup4\n        /* \"#utility.yul\":3599:3606   */\n      dup6\n        /* \"#utility.yul\":3595:3618   */\n      sub\n        /* \"#utility.yul\":3591:3623   */\n      slt\n        /* \"#utility.yul\":3588:3707   */\n      iszero\n      tag_120\n      jumpi\n        /* \"#utility.yul\":3626:3705   */\n      tag_121\n      tag_60\n      jump\t// in\n    tag_121:\n        /* \"#utility.yul\":3588:3707   */\n    tag_120:\n        /* \"#utility.yul\":3746:3747   */\n      0x00\n        /* \"#utility.yul\":3771:3824   */\n      tag_122\n        /* \"#utility.yul\":3816:3823   */\n      dup6\n        /* \"#utility.yul\":3807:3813   */\n      dup3\n        /* \"#utility.yul\":3796:3805   */\n      dup7\n        /* \"#utility.yul\":3792:3814   */\n      add\n        /* \"#utility.yul\":3771:3824   */\n      tag_68\n      jump\t// in\n    tag_122:\n        /* \"#utility.yul\":3761:3824   */\n      swap3\n      pop\n        /* \"#utility.yul\":3717:3834   */\n      pop\n        /* \"#utility.yul\":3873:3875   */\n      0x20\n        /* \"#utility.yul\":3899:3952   */\n      tag_123\n        /* \"#utility.yul\":3944:3951   */\n      dup6\n        /* \"#utility.yul\":3935:3941   */\n      dup3\n        /* \"#utility.yul\":3924:3933   */\n      dup7\n        /* \"#utility.yul\":3920:3942   */\n      add\n        /* \"#utility.yul\":3899:3952   */\n      tag_71\n      jump\t// in\n    tag_123:\n        /* \"#utility.yul\":3889:3952   */\n      swap2\n      pop\n        /* \"#utility.yul\":3844:3962   */\n      pop\n        /* \"#utility.yul\":3495:3969   */\n      swap3\n      pop\n      swap3\n      swap1\n      pop\n      jump\t// out\n        /* \"#utility.yul\":3975:4155   */\n    tag_73:\n        /* \"#utility.yul\":4023:4100   */\n      0x4e487b7100000000000000000000000000000000000000000000000000000000\n        /* \"#utility.yul\":4020:4021   */\n      0x00\n        /* \"#utility.yul\":4013:4101   */\n      mstore\n        /* \"#utility.yul\":4120:4124   */\n      0x11\n        /* \"#utility.yul\":4117:4118   */\n      0x04\n        /* \"#utility.yul\":4110:4125   */\n      mstore\n        /* \"#utility.yul\":4144:4148   */\n      0x24\n        /* \"#utility.yul\":4141:4142   */\n      0x00\n        /* \"#utility.yul\":4134:4149   */\n      revert\n        /* \"#utility.yul\":4161:4352   */\n    tag_40:\n        /* \"#utility.yul\":4201:4204   */\n      0x00\n        /* \"#utility.yul\":4220:4240   */\n      tag_126\n        /* \"#utility.yul\":4238:4239   */\n      dup3\n        /* \"#utility.yul\":4220:4240   */\n      tag_69\n      jump\t// in\n    tag_126:\n        /* \"#utility.yul\":4215:4240   */\n      swap2\n      pop\n        /* \"#utility.yul\":4254:4274   */\n      tag_127\n        /* \"#utility.yul\":4272:4273   */\n      dup4\n        /* \"#utility.yul\":4254:4274   */\n      tag_69\n      jump\t// in\n    tag_127:\n        /* \"#utility.yul\":4249:4274   */\n      swap3\n      pop\n        /* \"#utility.yul\":4297:4298   */\n      dup3\n        /* \"#utility.yul\":4294:4295   */\n      dup3\n        /* \"#utility.yul\":4290:4299   */\n      add\n        /* \"#utility.yul\":4283:4299   */\n      swap1\n      pop\n        /* \"#utility.yul\":4318:4321   */\n      dup1\n        /* \"#utility.yul\":4315:4316   */\n      dup3\n        /* \"#utility.yul\":4312:4322   */\n      gt\n        /* \"#utility.yul\":4309:4345   */\n      iszero\n      tag_128\n      jumpi\n        /* \"#utility.yul\":4325:4343   */\n      tag_129\n      tag_73\n      jump\t// in\n    tag_129:\n        /* \"#utility.yul\":4309:4345   */\n    tag_128:\n        /* \"#utility.yul\":4161:4352   */\n      swap3\n      swap2\n      pop\n      pop\n      jump\t// out\n        /* \"#utility.yul\":4358:4552   */\n    tag_42:\n        /* \"#utility.yul\":4398:4402   */\n      0x00\n        /* \"#utility.yul\":4418:4438   */\n      tag_131\n        /* \"#utility.yul\":4436:4437   */\n      dup3\n        /* \"#utility.yul\":4418:4438   */\n      tag_69\n      jump\t// in\n    tag_131:\n        /* \"#utility.yul\":4413:4438   */\n      swap2\n      pop\n        /* \"#utility.yul\":4452:4472   */\n      tag_132\n        /* \"#utility.yul\":4470:4471   */\n      dup4\n        /* \"#utility.yul\":4452:4472   */\n      tag_69\n      jump\t// in\n    tag_132:\n        /* \"#utility.yul\":4447:4472   */\n      swap3\n      pop\n        /* \"#utility.yul\":4496:4497   */\n      dup3\n        /* \"#utility.yul\":4493:4494   */\n      dup3\n        /* \"#utility.yul\":4489:4498   */\n      sub\n        /* \"#utility.yul\":4481:4498   */\n      swap1\n      pop\n        /* \"#utility.yul\":4520:4521   */\n      dup2\n        /* \"#utility.yul\":4514:4518   */\n      dup2\n        /* \"#utility.yul\":4511:4522   */\n      gt\n        /* \"#utility.yul\":4508:4545   */\n      iszero\n      tag_133\n      jumpi\n        /* \"#utility.yul\":4525:4543   */\n      tag_134\n      tag_73\n      jump\t// in\n    tag_134:\n        /* \"#utility.yul\":4508:4545   */\n    tag_133:\n        /* \"#utility.yul\":4358:4552   */\n      swap3\n      swap2\n      pop\n      pop\n      jump\t// out\n\n    auxdata: 0xa26469706673582212203b36e5459012de060e710e7817fd30ae0d9b01ba8b450101a6399b19cd960e0864736f6c634300081a0033\n}\n",
				"bytecode": {
					"linkReferences": {},
					"object": "6080604052335f806101000a81548173ffffffffffffffffffffffffffffffffffffffff021916908373ffffffffffffffffffffffffffffffffffffffff160217905550600160025f3373ffffffffffffffffffffffffffffffffffffffff1673ffffffffffffffffffffffffffffffffffffffff1681526020019081526020015f20819055503460015f3373ffffffffffffffffffffffffffffffffffffffff1673ffffffffffffffffffffffffffffffffffffffff1681526020019081526020015f205f0181905550610a54806100d75f395ff3fe608060405260043610610054575f3560e01c80631aa3a008146100585780632109dc88146100625780632ec2c2461461007e5780636d1954e0146100a6578063a3aa1913146100ce578063c8c01a551461010c575b5f80fd5b610060610134565b005b61007c600480360381019061007791906107f5565b6101c2565b005b348015610089575f80fd5b506100a4600480360381019061009f91906107f5565b610378565b005b3480156100b1575f80fd5b506100cc60048036038101906100c7919061088e565b610530565b005b3480156100d9575f80fd5b506100f460048036038101906100ef91906108de565b610651565b60405161010393929190610918565b60405180910390f35b348015610117575f80fd5b50610132600480360381019061012d919061094d565b610677565b005b5f339050600160025f8373ffffffffffffffffffffffffffffffffffffffff1673ffffffffffffffffffffffffffffffffffffffff1681526020019081526020015f20819055503460015f3373ffffffffffffffffffffffffffffffffffffffff1673ffffffffffffffffffffffffffffffffffffffff1681526020019081526020015f205f018190555050565b600160025f3373ffffffffffffffffffffffffffffffffffffffff1673ffffffffffffffffffffffffffffffffffffffff1681526020019081526020015f20541461020b575f80fd5b5f3390505f3490508060015f8573ffffffffffffffffffffffffffffffffffffffff1673ffffffffffffffffffffffffffffffffffffffff1681526020019081526020015f205f015461025e91906109b8565b60015f8573ffffffffffffffffffffffffffffffffffffffff1673ffffffffffffffffffffffffffffffffffffffff1681526020019081526020015f205f01819055508060015f8473ffffffffffffffffffffffffffffffffffffffff1673ffffffffffffffffffffffffffffffffffffffff1681526020019081526020015f205f01546102ec91906109eb565b60015f8473ffffffffffffffffffffffffffffffffffffffff1673ffffffffffffffffffffffffffffffffffffffff1681526020019081526020015f205f01819055508273ffffffffffffffffffffffffffffffffffffffff166108fc8290811502906040515f60405180830381858888f19350505050158015610372573d5f803e3d5ffd5b50505050565b5f8054906101000a900473ffffffffffffffffffffffffffffffffffffffff1673ffffffffffffffffffffffffffffffffffffffff163373ffffffffffffffffffffffffffffffffffffffff16146103ce575f80fd5b3373ffffffffffffffffffffffffffffffffffffffff165f8054906101000a900473ffffffffffffffffffffffffffffffffffffffff1673ffffffffffffffffffffffffffffffffffffffff1614610424575f80fd5b5f60025f8373ffffffffffffffffffffffffffffffffffffffff1673ffffffffffffffffffffffffffffffffffffffff1681526020019081526020015f20819055508073ffffffffffffffffffffffffffffffffffffffff166108fc60015f8473ffffffffffffffffffffffffffffffffffffffff1673ffffffffffffffffffffffffffffffffffffffff1681526020019081526020015f205f015490811502906040515f60405180830381858888f193505050501580156104e8573d5f803e3d5ffd5b505f60015f8373ffffffffffffffffffffffffffffffffffffffff1673ffffffffffffffffffffffffffffffffffffffff1681526020019081526020015f205f018190555050565b600160025f3373ffffffffffffffffffffffffffffffffffffffff1673ffffffffffffffffffffffffffffffffffffffff1681526020019081526020015f205414610579575f80fd5b600160025f8573ffffffffffffffffffffffffffffffffffffffff1673ffffffffffffffffffffffffffffffffffffffff1681526020019081526020015f2054146105c2575f80fd5b8060015f3373ffffffffffffffffffffffffffffffffffffffff1673ffffffffffffffffffffffffffffffffffffffff1681526020019081526020015f20600101819055508160015f8573ffffffffffffffffffffffffffffffffffffffff1673ffffffffffffffffffffffffffffffffffffffff1681526020019081526020015f2060020181905550505050565b6001602052805f5260405f205f91509050805f0154908060010154908060020154905083565b600160025f3373ffffffffffffffffffffffffffffffffffffffff1673ffffffffffffffffffffffffffffffffffffffff1681526020019081526020015f2054146106c0575f80fd5b600160025f8473ffffffffffffffffffffffffffffffffffffffff1673ffffffffffffffffffffffffffffffffffffffff1681526020019081526020015f205414610709575f80fd5b5f60015f3373ffffffffffffffffffffffffffffffffffffffff1673ffffffffffffffffffffffffffffffffffffffff1681526020019081526020015f20600101819055508060015f3373ffffffffffffffffffffffffffffffffffffffff1673ffffffffffffffffffffffffffffffffffffffff1681526020019081526020015f20600201819055505050565b5f80fd5b5f73ffffffffffffffffffffffffffffffffffffffff82169050919050565b5f6107c48261079b565b9050919050565b6107d4816107ba565b81146107de575f80fd5b50565b5f813590506107ef816107cb565b92915050565b5f6020828403121561080a57610809610797565b5b5f610817848285016107e1565b91505092915050565b5f61082a8261079b565b9050919050565b61083a81610820565b8114610844575f80fd5b50565b5f8135905061085581610831565b92915050565b5f819050919050565b61086d8161085b565b8114610877575f80fd5b50565b5f8135905061088881610864565b92915050565b5f805f606084860312156108a5576108a4610797565b5b5f6108b286828701610847565b93505060206108c38682870161087a565b92505060406108d48682870161087a565b9150509250925092565b5f602082840312156108f3576108f2610797565b5b5f61090084828501610847565b91505092915050565b6109128161085b565b82525050565b5f60608201905061092b5f830186610909565b6109386020830185610909565b6109456040830184610909565b949350505050565b5f806040838503121561096357610962610797565b5b5f61097085828601610847565b92505060206109818582860161087a565b9150509250929050565b7f4e487b71000000000000000000000000000000000000000000000000000000005f52601160045260245ffd5b5f6109c28261085b565b91506109cd8361085b565b92508282019050808211156109e5576109e461098b565b5b92915050565b5f6109f58261085b565b9150610a008361085b565b9250828203905081811115610a1857610a1761098b565b5b9291505056fea26469706673582212203b36e5459012de060e710e7817fd30ae0d9b01ba8b450101a6399b19cd960e0864736f6c634300081a0033",
					"opcodes": "PUSH1 0x80 PUSH1 0x40 MSTORE CALLER PUSH0 DUP1 PUSH2 0x100 EXP DUP2 SLOAD DUP2 PUSH20 0xFFFFFFFFFFFFFFFFFFFFFFFFFFFFFFFFFFFFFFFF MUL NOT AND SWAP1 DUP4 PUSH20 0xFFFFFFFFFFFFFFFFFFFFFFFFFFFFFFFFFFFFFFFF AND MUL OR SWAP1 SSTORE POP PUSH1 0x1 PUSH1 0x2 PUSH0 CALLER PUSH20 0xFFFFFFFFFFFFFFFFFFFFFFFFFFFFFFFFFFFFFFFF AND PUSH20 0xFFFFFFFFFFFFFFFFFFFFFFFFFFFFFFFFFFFFFFFF AND DUP2 MSTORE PUSH1 0x20 ADD SWAP1 DUP2 MSTORE PUSH1 0x20 ADD PUSH0 KECCAK256 DUP2 SWAP1 SSTORE POP CALLVALUE PUSH1 0x1 PUSH0 CALLER PUSH20 0xFFFFFFFFFFFFFFFFFFFFFFFFFFFFFFFFFFFFFFFF AND PUSH20 0xFFFFFFFFFFFFFFFFFFFFFFFFFFFFFFFFFFFFFFFF AND DUP2 MSTORE PUSH1 0x20 ADD SWAP1 DUP2 MSTORE PUSH1 0x20 ADD PUSH0 KECCAK256 PUSH0 ADD DUP2 SWAP1 SSTORE POP PUSH2 0xA54 DUP1 PUSH2 0xD7 PUSH0 CODECOPY PUSH0 RETURN INVALID PUSH1 0x80 PUSH1 0x40 MSTORE PUSH1 0x4 CALLDATASIZE LT PUSH2 0x54 JUMPI PUSH0 CALLDATALOAD PUSH1 0xE0 SHR DUP1 PUSH4 0x1AA3A008 EQ PUSH2 0x58 JUMPI DUP1 PUSH4 0x2109DC88 EQ PUSH2 0x62 JUMPI DUP1 PUSH4 0x2EC2C246 EQ PUSH2 0x7E JUMPI DUP1 PUSH4 0x6D1954E0 EQ PUSH2 0xA6 JUMPI DUP1 PUSH4 0xA3AA1913 EQ PUSH2 0xCE JUMPI DUP1 PUSH4 0xC8C01A55 EQ PUSH2 0x10C JUMPI JUMPDEST PUSH0 DUP1 REVERT JUMPDEST PUSH2 0x60 PUSH2 0x134 JUMP JUMPDEST STOP JUMPDEST PUSH2 0x7C PUSH1 0x4 DUP1 CALLDATASIZE SUB DUP2 ADD SWAP1 PUSH2 0x77 SWAP2 SWAP1 PUSH2 0x7F5 JUMP JUMPDEST PUSH2 0x1C2 JUMP JUMPDEST STOP JUMPDEST CALLVALUE DUP1 ISZERO PUSH2 0x89 JUMPI PUSH0 DUP1 REVERT JUMPDEST POP PUSH2 0xA4 PUSH1 0x4 DUP1 CALLDATASIZE SUB DUP2 ADD SWAP1 PUSH2 0x9F SWAP2 SWAP1 PUSH2 0x7F5 JUMP JUMPDEST PUSH2 0x378 JUMP JUMPDEST STOP JUMPDEST CALLVALUE DUP1 ISZERO PUSH2 0xB1 JUMPI PUSH0 DUP1 REVERT JUMPDEST POP PUSH2 0xCC PUSH1 0x4 DUP1 CALLDATASIZE SUB DUP2 ADD SWAP1 PUSH2 0xC7 SWAP2 SWAP1 PUSH2 0x88E JUMP JUMPDEST PUSH2 0x530 JUMP JUMPDEST STOP JUMPDEST CALLVALUE DUP1 ISZERO PUSH2 0xD9 JUMPI PUSH0 DUP1 REVERT JUMPDEST POP PUSH2 0xF4 PUSH1 0x4 DUP1 CALLDATASIZE SUB DUP2 ADD SWAP1 PUSH2 0xEF SWAP2 SWAP1 PUSH2 0x8DE JUMP JUMPDEST PUSH2 0x651 JUMP JUMPDEST PUSH1 0x40 MLOAD PUSH2 0x103 SWAP4 SWAP3 SWAP2 SWAP1 PUSH2 0x918 JUMP JUMPDEST PUSH1 0x40 MLOAD DUP1 SWAP2 SUB SWAP1 RETURN JUMPDEST CALLVALUE DUP1 ISZERO PUSH2 0x117 JUMPI PUSH0 DUP1 REVERT JUMPDEST POP PUSH2 0x132 PUSH1 0x4 DUP1 CALLDATASIZE SUB DUP2 ADD SWAP1 PUSH2 0x12D SWAP2 SWAP1 PUSH2 0x94D JUMP JUMPDEST PUSH2 0x677 JUMP JUMPDEST STOP JUMPDEST PUSH0 CALLER SWAP1 POP PUSH1 0x1 PUSH1 0x2 PUSH0 DUP4 PUSH20 0xFFFFFFFFFFFFFFFFFFFFFFFFFFFFFFFFFFFFFFFF AND PUSH20 0xFFFFFFFFFFFFFFFFFFFFFFFFFFFFFFFFFFFFFFFF AND DUP2 MSTORE PUSH1 0x20 ADD SWAP1 DUP2 MSTORE PUSH1 0x20 ADD PUSH0 KECCAK256 DUP2 SWAP1 SSTORE POP CALLVALUE PUSH1 0x1 PUSH0 CALLER PUSH20 0xFFFFFFFFFFFFFFFFFFFFFFFFFFFFFFFFFFFFFFFF AND PUSH20 0xFFFFFFFFFFFFFFFFFFFFFFFFFFFFFFFFFFFFFFFF AND DUP2 MSTORE PUSH1 0x20 ADD SWAP1 DUP2 MSTORE PUSH1 0x20 ADD PUSH0 KECCAK256 PUSH0 ADD DUP2 SWAP1 SSTORE POP POP JUMP JUMPDEST PUSH1 0x1 PUSH1 0x2 PUSH0 CALLER PUSH20 0xFFFFFFFFFFFFFFFFFFFFFFFFFFFFFFFFFFFFFFFF AND PUSH20 0xFFFFFFFFFFFFFFFFFFFFFFFFFFFFFFFFFFFFFFFF AND DUP2 MSTORE PUSH1 0x20 ADD SWAP1 DUP2 MSTORE PUSH1 0x20 ADD PUSH0 KECCAK256 SLOAD EQ PUSH2 0x20B JUMPI PUSH0 DUP1 REVERT JUMPDEST PUSH0 CALLER SWAP1 POP PUSH0 CALLVALUE SWAP1 POP DUP1 PUSH1 0x1 PUSH0 DUP6 PUSH20 0xFFFFFFFFFFFFFFFFFFFFFFFFFFFFFFFFFFFFFFFF AND PUSH20 0xFFFFFFFFFFFFFFFFFFFFFFFFFFFFFFFFFFFFFFFF AND DUP2 MSTORE PUSH1 0x20 ADD SWAP1 DUP2 MSTORE PUSH1 0x20 ADD PUSH0 KECCAK256 PUSH0 ADD SLOAD PUSH2 0x25E SWAP2 SWAP1 PUSH2 0x9B8 JUMP JUMPDEST PUSH1 0x1 PUSH0 DUP6 PUSH20 0xFFFFFFFFFFFFFFFFFFFFFFFFFFFFFFFFFFFFFFFF AND PUSH20 0xFFFFFFFFFFFFFFFFFFFFFFFFFFFFFFFFFFFFFFFF AND DUP2 MSTORE PUSH1 0x20 ADD SWAP1 DUP2 MSTORE PUSH1 0x20 ADD PUSH0 KECCAK256 PUSH0 ADD DUP2 SWAP1 SSTORE POP DUP1 PUSH1 0x1 PUSH0 DUP5 PUSH20 0xFFFFFFFFFFFFFFFFFFFFFFFFFFFFFFFFFFFFFFFF AND PUSH20 0xFFFFFFFFFFFFFFFFFFFFFFFFFFFFFFFFFFFFFFFF AND DUP2 MSTORE PUSH1 0x20 ADD SWAP1 DUP2 MSTORE PUSH1 0x20 ADD PUSH0 KECCAK256 PUSH0 ADD SLOAD PUSH2 0x2EC SWAP2 SWAP1 PUSH2 0x9EB JUMP JUMPDEST PUSH1 0x1 PUSH0 DUP5 PUSH20 0xFFFFFFFFFFFFFFFFFFFFFFFFFFFFFFFFFFFFFFFF AND PUSH20 0xFFFFFFFFFFFFFFFFFFFFFFFFFFFFFFFFFFFFFFFF AND DUP2 MSTORE PUSH1 0x20 ADD SWAP1 DUP2 MSTORE PUSH1 0x20 ADD PUSH0 KECCAK256 PUSH0 ADD DUP2 SWAP1 SSTORE POP DUP3 PUSH20 0xFFFFFFFFFFFFFFFFFFFFFFFFFFFFFFFFFFFFFFFF AND PUSH2 0x8FC DUP3 SWAP1 DUP2 ISZERO MUL SWAP1 PUSH1 0x40 MLOAD PUSH0 PUSH1 0x40 MLOAD DUP1 DUP4 SUB DUP2 DUP6 DUP9 DUP9 CALL SWAP4 POP POP POP POP ISZERO DUP1 ISZERO PUSH2 0x372 JUMPI RETURNDATASIZE PUSH0 DUP1 RETURNDATACOPY RETURNDATASIZE PUSH0 REVERT JUMPDEST POP POP POP POP JUMP JUMPDEST PUSH0 DUP1 SLOAD SWAP1 PUSH2 0x100 EXP SWAP1 DIV PUSH20 0xFFFFFFFFFFFFFFFFFFFFFFFFFFFFFFFFFFFFFFFF AND PUSH20 0xFFFFFFFFFFFFFFFFFFFFFFFFFFFFFFFFFFFFFFFF AND CALLER PUSH20 0xFFFFFFFFFFFFFFFFFFFFFFFFFFFFFFFFFFFFFFFF AND EQ PUSH2 0x3CE JUMPI PUSH0 DUP1 REVERT JUMPDEST CALLER PUSH20 0xFFFFFFFFFFFFFFFFFFFFFFFFFFFFFFFFFFFFFFFF AND PUSH0 DUP1 SLOAD SWAP1 PUSH2 0x100 EXP SWAP1 DIV PUSH20 0xFFFFFFFFFFFFFFFFFFFFFFFFFFFFFFFFFFFFFFFF AND PUSH20 0xFFFFFFFFFFFFFFFFFFFFFFFFFFFFFFFFFFFFFFFF AND EQ PUSH2 0x424 JUMPI PUSH0 DUP1 REVERT JUMPDEST PUSH0 PUSH1 0x2 PUSH0 DUP4 PUSH20 0xFFFFFFFFFFFFFFFFFFFFFFFFFFFFFFFFFFFFFFFF AND PUSH20 0xFFFFFFFFFFFFFFFFFFFFFFFFFFFFFFFFFFFFFFFF AND DUP2 MSTORE PUSH1 0x20 ADD SWAP1 DUP2 MSTORE PUSH1 0x20 ADD PUSH0 KECCAK256 DUP2 SWAP1 SSTORE POP DUP1 PUSH20 0xFFFFFFFFFFFFFFFFFFFFFFFFFFFFFFFFFFFFFFFF AND PUSH2 0x8FC PUSH1 0x1 PUSH0 DUP5 PUSH20 0xFFFFFFFFFFFFFFFFFFFFFFFFFFFFFFFFFFFFFFFF AND PUSH20 0xFFFFFFFFFFFFFFFFFFFFFFFFFFFFFFFFFFFFFFFF AND DUP2 MSTORE PUSH1 0x20 ADD SWAP1 DUP2 MSTORE PUSH1 0x20 ADD PUSH0 KECCAK256 PUSH0 ADD SLOAD SWAP1 DUP2 ISZERO MUL SWAP1 PUSH1 0x40 MLOAD PUSH0 PUSH1 0x40 MLOAD DUP1 DUP4 SUB DUP2 DUP6 DUP9 DUP9 CALL SWAP4 POP POP POP POP ISZERO DUP1 ISZERO PUSH2 0x4E8 JUMPI RETURNDATASIZE PUSH0 DUP1 RETURNDATACOPY RETURNDATASIZE PUSH0 REVERT JUMPDEST POP PUSH0 PUSH1 0x1 PUSH0 DUP4 PUSH20 0xFFFFFFFFFFFFFFFFFFFFFFFFFFFFFFFFFFFFFFFF AND PUSH20 0xFFFFFFFFFFFFFFFFFFFFFFFFFFFFFFFFFFFFFFFF AND DUP2 MSTORE PUSH1 0x20 ADD SWAP1 DUP2 MSTORE PUSH1 0x20 ADD PUSH0 KECCAK256 PUSH0 ADD DUP2 SWAP1 SSTORE POP POP JUMP JUMPDEST PUSH1 0x1 PUSH1 0x2 PUSH0 CALLER PUSH20 0xFFFFFFFFFFFFFFFFFFFFFFFFFFFFFFFFFFFFFFFF AND PUSH20 0xFFFFFFFFFFFFFFFFFFFFFFFFFFFFFFFFFFFFFFFF AND DUP2 MSTORE PUSH1 0x20 ADD SWAP1 DUP2 MSTORE PUSH1 0x20 ADD PUSH0 KECCAK256 SLOAD EQ PUSH2 0x579 JUMPI PUSH0 DUP1 REVERT JUMPDEST PUSH1 0x1 PUSH1 0x2 PUSH0 DUP6 PUSH20 0xFFFFFFFFFFFFFFFFFFFFFFFFFFFFFFFFFFFFFFFF AND PUSH20 0xFFFFFFFFFFFFFFFFFFFFFFFFFFFFFFFFFFFFFFFF AND DUP2 MSTORE PUSH1 0x20 ADD SWAP1 DUP2 MSTORE PUSH1 0x20 ADD PUSH0 KECCAK256 SLOAD EQ PUSH2 0x5C2 JUMPI PUSH0 DUP1 REVERT JUMPDEST DUP1 PUSH1 0x1 PUSH0 CALLER PUSH20 0xFFFFFFFFFFFFFFFFFFFFFFFFFFFFFFFFFFFFFFFF AND PUSH20 0xFFFFFFFFFFFFFFFFFFFFFFFFFFFFFFFFFFFFFFFF AND DUP2 MSTORE PUSH1 0x20 ADD SWAP1 DUP2 MSTORE PUSH1 0x20 ADD PUSH0 KECCAK256 PUSH1 0x1 ADD DUP2 SWAP1 SSTORE POP DUP2 PUSH1 0x1 PUSH0 DUP6 PUSH20 0xFFFFFFFFFFFFFFFFFFFFFFFFFFFFFFFFFFFFFFFF AND PUSH20 0xFFFFFFFFFFFFFFFFFFFFFFFFFFFFFFFFFFFFFFFF AND DUP2 MSTORE PUSH1 0x20 ADD SWAP1 DUP2 MSTORE PUSH1 0x20 ADD PUSH0 KECCAK256 PUSH1 0x2 ADD DUP2 SWAP1 SSTORE POP POP POP POP JUMP JUMPDEST PUSH1 0x1 PUSH1 0x20 MSTORE DUP1 PUSH0 MSTORE PUSH1 0x40 PUSH0 KECCAK256 PUSH0 SWAP2 POP SWAP1 POP DUP1 PUSH0 ADD SLOAD SWAP1 DUP1 PUSH1 0x1 ADD SLOAD SWAP1 DUP1 PUSH1 0x2 ADD SLOAD SWAP1 POP DUP4 JUMP JUMPDEST PUSH1 0x1 PUSH1 0x2 PUSH0 CALLER PUSH20 0xFFFFFFFFFFFFFFFFFFFFFFFFFFFFFFFFFFFFFFFF AND PUSH20 0xFFFFFFFFFFFFFFFFFFFFFFFFFFFFFFFFFFFFFFFF AND DUP2 MSTORE PUSH1 0x20 ADD SWAP1 DUP2 MSTORE PUSH1 0x20 ADD PUSH0 KECCAK256 SLOAD EQ PUSH2 0x6C0 JUMPI PUSH0 DUP1 REVERT JUMPDEST PUSH1 0x1 PUSH1 0x2 PUSH0 DUP5 PUSH20 0xFFFFFFFFFFFFFFFFFFFFFFFFFFFFFFFFFFFFFFFF AND PUSH20 0xFFFFFFFFFFFFFFFFFFFFFFFFFFFFFFFFFFFFFFFF AND DUP2 MSTORE PUSH1 0x20 ADD SWAP1 DUP2 MSTORE PUSH1 0x20 ADD PUSH0 KECCAK256 SLOAD EQ PUSH2 0x709 JUMPI PUSH0 DUP1 REVERT JUMPDEST PUSH0 PUSH1 0x1 PUSH0 CALLER PUSH20 0xFFFFFFFFFFFFFFFFFFFFFFFFFFFFFFFFFFFFFFFF AND PUSH20 0xFFFFFFFFFFFFFFFFFFFFFFFFFFFFFFFFFFFFFFFF AND DUP2 MSTORE PUSH1 0x20 ADD SWAP1 DUP2 MSTORE PUSH1 0x20 ADD PUSH0 KECCAK256 PUSH1 0x1 ADD DUP2 SWAP1 SSTORE POP DUP1 PUSH1 0x1 PUSH0 CALLER PUSH20 0xFFFFFFFFFFFFFFFFFFFFFFFFFFFFFFFFFFFFFFFF AND PUSH20 0xFFFFFFFFFFFFFFFFFFFFFFFFFFFFFFFFFFFFFFFF AND DUP2 MSTORE PUSH1 0x20 ADD SWAP1 DUP2 MSTORE PUSH1 0x20 ADD PUSH0 KECCAK256 PUSH1 0x2 ADD DUP2 SWAP1 SSTORE POP POP POP JUMP JUMPDEST PUSH0 DUP1 REVERT JUMPDEST PUSH0 PUSH20 0xFFFFFFFFFFFFFFFFFFFFFFFFFFFFFFFFFFFFFFFF DUP3 AND SWAP1 POP SWAP2 SWAP1 POP JUMP JUMPDEST PUSH0 PUSH2 0x7C4 DUP3 PUSH2 0x79B JUMP JUMPDEST SWAP1 POP SWAP2 SWAP1 POP JUMP JUMPDEST PUSH2 0x7D4 DUP2 PUSH2 0x7BA JUMP JUMPDEST DUP2 EQ PUSH2 0x7DE JUMPI PUSH0 DUP1 REVERT JUMPDEST POP JUMP JUMPDEST PUSH0 DUP2 CALLDATALOAD SWAP1 POP PUSH2 0x7EF DUP2 PUSH2 0x7CB JUMP JUMPDEST SWAP3 SWAP2 POP POP JUMP JUMPDEST PUSH0 PUSH1 0x20 DUP3 DUP5 SUB SLT ISZERO PUSH2 0x80A JUMPI PUSH2 0x809 PUSH2 0x797 JUMP JUMPDEST JUMPDEST PUSH0 PUSH2 0x817 DUP5 DUP3 DUP6 ADD PUSH2 0x7E1 JUMP JUMPDEST SWAP2 POP POP SWAP3 SWAP2 POP POP JUMP JUMPDEST PUSH0 PUSH2 0x82A DUP3 PUSH2 0x79B JUMP JUMPDEST SWAP1 POP SWAP2 SWAP1 POP JUMP JUMPDEST PUSH2 0x83A DUP2 PUSH2 0x820 JUMP JUMPDEST DUP2 EQ PUSH2 0x844 JUMPI PUSH0 DUP1 REVERT JUMPDEST POP JUMP JUMPDEST PUSH0 DUP2 CALLDATALOAD SWAP1 POP PUSH2 0x855 DUP2 PUSH2 0x831 JUMP JUMPDEST SWAP3 SWAP2 POP POP JUMP JUMPDEST PUSH0 DUP2 SWAP1 POP SWAP2 SWAP1 POP JUMP JUMPDEST PUSH2 0x86D DUP2 PUSH2 0x85B JUMP JUMPDEST DUP2 EQ PUSH2 0x877 JUMPI PUSH0 DUP1 REVERT JUMPDEST POP JUMP JUMPDEST PUSH0 DUP2 CALLDATALOAD SWAP1 POP PUSH2 0x888 DUP2 PUSH2 0x864 JUMP JUMPDEST SWAP3 SWAP2 POP POP JUMP JUMPDEST PUSH0 DUP1 PUSH0 PUSH1 0x60 DUP5 DUP7 SUB SLT ISZERO PUSH2 0x8A5 JUMPI PUSH2 0x8A4 PUSH2 0x797 JUMP JUMPDEST JUMPDEST PUSH0 PUSH2 0x8B2 DUP7 DUP3 DUP8 ADD PUSH2 0x847 JUMP JUMPDEST SWAP4 POP POP PUSH1 0x20 PUSH2 0x8C3 DUP7 DUP3 DUP8 ADD PUSH2 0x87A JUMP JUMPDEST SWAP3 POP POP PUSH1 0x40 PUSH2 0x8D4 DUP7 DUP3 DUP8 ADD PUSH2 0x87A JUMP JUMPDEST SWAP2 POP POP SWAP3 POP SWAP3 POP SWAP3 JUMP JUMPDEST PUSH0 PUSH1 0x20 DUP3 DUP5 SUB SLT ISZERO PUSH2 0x8F3 JUMPI PUSH2 0x8F2 PUSH2 0x797 JUMP JUMPDEST JUMPDEST PUSH0 PUSH2 0x900 DUP5 DUP3 DUP6 ADD PUSH2 0x847 JUMP JUMPDEST SWAP2 POP POP SWAP3 SWAP2 POP POP JUMP JUMPDEST PUSH2 0x912 DUP2 PUSH2 0x85B JUMP JUMPDEST DUP3 MSTORE POP POP JUMP JUMPDEST PUSH0 PUSH1 0x60 DUP3 ADD SWAP1 POP PUSH2 0x92B PUSH0 DUP4 ADD DUP7 PUSH2 0x909 JUMP JUMPDEST PUSH2 0x938 PUSH1 0x20 DUP4 ADD DUP6 PUSH2 0x909 JUMP JUMPDEST PUSH2 0x945 PUSH1 0x40 DUP4 ADD DUP5 PUSH2 0x909 JUMP JUMPDEST SWAP5 SWAP4 POP POP POP POP JUMP JUMPDEST PUSH0 DUP1 PUSH1 0x40 DUP4 DUP6 SUB SLT ISZERO PUSH2 0x963 JUMPI PUSH2 0x962 PUSH2 0x797 JUMP JUMPDEST JUMPDEST PUSH0 PUSH2 0x970 DUP6 DUP3 DUP7 ADD PUSH2 0x847 JUMP JUMPDEST SWAP3 POP POP PUSH1 0x20 PUSH2 0x981 DUP6 DUP3 DUP7 ADD PUSH2 0x87A JUMP JUMPDEST SWAP2 POP POP SWAP3 POP SWAP3 SWAP1 POP JUMP JUMPDEST PUSH32 0x4E487B7100000000000000000000000000000000000000000000000000000000 PUSH0 MSTORE PUSH1 0x11 PUSH1 0x4 MSTORE PUSH1 0x24 PUSH0 REVERT JUMPDEST PUSH0 PUSH2 0x9C2 DUP3 PUSH2 0x85B JUMP JUMPDEST SWAP2 POP PUSH2 0x9CD DUP4 PUSH2 0x85B JUMP JUMPDEST SWAP3 POP DUP3 DUP3 ADD SWAP1 POP DUP1 DUP3 GT ISZERO PUSH2 0x9E5 JUMPI PUSH2 0x9E4 PUSH2 0x98B JUMP JUMPDEST JUMPDEST SWAP3 SWAP2 POP POP JUMP JUMPDEST PUSH0 PUSH2 0x9F5 DUP3 PUSH2 0x85B JUMP JUMPDEST SWAP2 POP PUSH2 0xA00 DUP4 PUSH2 0x85B JUMP JUMPDEST SWAP3 POP DUP3 DUP3 SUB SWAP1 POP DUP2 DUP2 GT ISZERO PUSH2 0xA18 JUMPI PUSH2 0xA17 PUSH2 0x98B JUMP JUMPDEST JUMPDEST SWAP3 SWAP2 POP POP JUMP INVALID LOG2 PUSH5 0x6970667358 0x22 SLT KECCAK256 EXTCODESIZE CALLDATASIZE 0xE5 GASLIMIT SWAP1 SLT 0xDE MOD 0xE PUSH18 0xE7817FD30AE0D9B01BA8B450101A6399B19 0xCD SWAP7 0xE ADDMOD PUSH5 0x736F6C6343 STOP ADDMOD BYTE STOP CALLER "
				},
				"gasEstimates": {
					"creation": {
						"codeDepositCost": "528800",
						"executionCost": "69207",
						"totalCost": "598007"
					},
					"external": {
						"balanceDetails(address)": "infinite",
						"register()": "44515",
						"request(address,uint256)": "32442",
						"response(address,uint256,uint256)": "infinite",
						"settlePayment(address)": "infinite",
						"unregister(address)": "infinite"
					}
				},
				"methodIdentifiers": {
					"balanceDetails(address)": "a3aa1913",
					"register()": "1aa3a008",
					"request(address,uint256)": "c8c01a55",
					"response(address,uint256,uint256)": "6d1954e0",
					"settlePayment(address)": "2109dc88",
					"unregister(address)": "2ec2c246"
				}
			},
			"storageLayout": {
				"storage": [
					{
						"astId": 3,
						"contract": "contracts/airlines.sol:Airlines",
						"label": "chairperson",
						"offset": 0,
						"slot": "0",
						"type": "t_address"
					},
					{
						"astId": 15,
						"contract": "contracts/airlines.sol:Airlines",
						"label": "balanceDetails",
						"offset": 0,
						"slot": "1",
						"type": "t_mapping(t_address,t_struct(details)10_storage)"
					},
					{
						"astId": 19,
						"contract": "contracts/airlines.sol:Airlines",
						"label": "membership",
						"offset": 0,
						"slot": "2",
						"type": "t_mapping(t_address,t_uint256)"
					}
				],
				"types": {
					"t_address": {
						"encoding": "inplace",
						"label": "address",
						"numberOfBytes": "20"
					},
					"t_mapping(t_address,t_struct(details)10_storage)": {
						"encoding": "mapping",
						"key": "t_address",
						"label": "mapping(address => struct Airlines.details)",
						"numberOfBytes": "32",
						"value": "t_struct(details)10_storage"
					},
					"t_mapping(t_address,t_uint256)": {
						"encoding": "mapping",
						"key": "t_address",
						"label": "mapping(address => uint256)",
						"numberOfBytes": "32",
						"value": "t_uint256"
					},
					"t_struct(details)10_storage": {
						"encoding": "inplace",
						"label": "struct Airlines.details",
						"members": [
							{
								"astId": 5,
								"contract": "contracts/airlines.sol:Airlines",
								"label": "escrow",
								"offset": 0,
								"slot": "0",
								"type": "t_uint256"
							},
							{
								"astId": 7,
								"contract": "contracts/airlines.sol:Airlines",
								"label": "status",
								"offset": 0,
								"slot": "1",
								"type": "t_uint256"
							},
							{
								"astId": 9,
								"contract": "contracts/airlines.sol:Airlines",
								"label": "hashOfDetails",
								"offset": 0,
								"slot": "2",
								"type": "t_uint256"
							}
						],
						"numberOfBytes": "96"
					},
					"t_uint256": {
						"encoding": "inplace",
						"label": "uint256",
						"numberOfBytes": "32"
					}
				}
			},
			"userdoc": {
				"kind": "user",
				"methods": {},
				"version": 1
			}
		}
	}
}