{
  "contractName": "Raffle",
  "abi": [
    {
      "inputs": [
        {
          "internalType": "uint256",
          "name": "_ticketPrice",
          "type": "uint256"
        },
        {
          "internalType": "uint256",
          "name": "_maxTicketsPerTx",
          "type": "uint256"
        },
        {
          "internalType": "uint256",
          "name": "_jackpotPercentage",
          "type": "uint256"
        },
        {
          "internalType": "uint256",
          "name": "_raffleDuration",
          "type": "uint256"
        },
        {
          "internalType": "uint256",
          "name": "_maxTickets",
          "type": "uint256"
        }
      ],
      "payable": false,
      "stateMutability": "nonpayable",
      "type": "constructor"
    },
    {
      "anonymous": false,
      "inputs": [
        {
          "indexed": true,
          "internalType": "address",
          "name": "winner",
          "type": "address"
        },
        {
          "indexed": false,
          "internalType": "uint256",
          "name": "amount",
          "type": "uint256"
        }
      ],
      "name": "JackpotClaimed",
      "type": "event"
    },
    {
      "anonymous": false,
      "inputs": [
        {
          "indexed": true,
          "internalType": "address",
          "name": "winner",
          "type": "address"
        },
        {
          "indexed": false,
          "internalType": "uint256",
          "name": "amount",
          "type": "uint256"
        }
      ],
      "name": "RaffleEnded",
      "type": "event"
    },
    {
      "anonymous": false,
      "inputs": [
        {
          "indexed": true,
          "internalType": "address",
          "name": "buyer",
          "type": "address"
        },
        {
          "indexed": true,
          "internalType": "uint256",
          "name": "ticketId",
          "type": "uint256"
        }
      ],
      "name": "TicketPurchased",
      "type": "event"
    },
    {
      "constant": true,
      "inputs": [],
      "name": "jackpotPercentage",
      "outputs": [
        {
          "internalType": "uint256",
          "name": "",
          "type": "uint256"
        }
      ],
      "payable": false,
      "stateMutability": "view",
      "type": "function"
    },
    {
      "constant": true,
      "inputs": [],
      "name": "lastPurchaseTime",
      "outputs": [
        {
          "internalType": "uint256",
          "name": "",
          "type": "uint256"
        }
      ],
      "payable": false,
      "stateMutability": "view",
      "type": "function"
    },
    {
      "constant": true,
      "inputs": [],
      "name": "maxTickets",
      "outputs": [
        {
          "internalType": "uint256",
          "name": "",
          "type": "uint256"
        }
      ],
      "payable": false,
      "stateMutability": "view",
      "type": "function"
    },
    {
      "constant": true,
      "inputs": [],
      "name": "maxTicketsPerTx",
      "outputs": [
        {
          "internalType": "uint256",
          "name": "",
          "type": "uint256"
        }
      ],
      "payable": false,
      "stateMutability": "view",
      "type": "function"
    },
    {
      "constant": true,
      "inputs": [],
      "name": "owner",
      "outputs": [
        {
          "internalType": "address",
          "name": "",
          "type": "address"
        }
      ],
      "payable": false,
      "stateMutability": "view",
      "type": "function"
    },
    {
      "constant": true,
      "inputs": [],
      "name": "raffleDuration",
      "outputs": [
        {
          "internalType": "uint256",
          "name": "",
          "type": "uint256"
        }
      ],
      "payable": false,
      "stateMutability": "view",
      "type": "function"
    },
    {
      "constant": true,
      "inputs": [],
      "name": "raffleEnded",
      "outputs": [
        {
          "internalType": "bool",
          "name": "",
          "type": "bool"
        }
      ],
      "payable": false,
      "stateMutability": "view",
      "type": "function"
    },
    {
      "constant": true,
      "inputs": [],
      "name": "raffleStartTime",
      "outputs": [
        {
          "internalType": "uint256",
          "name": "",
          "type": "uint256"
        }
      ],
      "payable": false,
      "stateMutability": "view",
      "type": "function"
    },
    {
      "constant": true,
      "inputs": [
        {
          "internalType": "address",
          "name": "",
          "type": "address"
        }
      ],
      "name": "roles",
      "outputs": [
        {
          "internalType": "enum Raffle.Role",
          "name": "",
          "type": "uint8"
        }
      ],
      "payable": false,
      "stateMutability": "view",
      "type": "function"
    },
    {
      "constant": true,
      "inputs": [],
      "name": "ticketPrice",
      "outputs": [
        {
          "internalType": "uint256",
          "name": "",
          "type": "uint256"
        }
      ],
      "payable": false,
      "stateMutability": "view",
      "type": "function"
    },
    {
      "constant": true,
      "inputs": [
        {
          "internalType": "uint256",
          "name": "",
          "type": "uint256"
        }
      ],
      "name": "tickets",
      "outputs": [
        {
          "internalType": "address",
          "name": "owner",
          "type": "address"
        }
      ],
      "payable": false,
      "stateMutability": "view",
      "type": "function"
    },
    {
      "constant": true,
      "inputs": [
        {
          "internalType": "address",
          "name": "",
          "type": "address"
        },
        {
          "internalType": "uint256",
          "name": "",
          "type": "uint256"
        }
      ],
      "name": "ticketsOf",
      "outputs": [
        {
          "internalType": "uint256",
          "name": "",
          "type": "uint256"
        }
      ],
      "payable": false,
      "stateMutability": "view",
      "type": "function"
    },
    {
      "constant": true,
      "inputs": [],
      "name": "unclaimedSince",
      "outputs": [
        {
          "internalType": "uint256",
          "name": "",
          "type": "uint256"
        }
      ],
      "payable": false,
      "stateMutability": "view",
      "type": "function"
    },
    {
      "constant": true,
      "inputs": [],
      "name": "winner",
      "outputs": [
        {
          "internalType": "address",
          "name": "",
          "type": "address"
        }
      ],
      "payable": false,
      "stateMutability": "view",
      "type": "function"
    },
    {
      "constant": false,
      "inputs": [
        {
          "internalType": "address",
          "name": "_user",
          "type": "address"
        },
        {
          "internalType": "enum Raffle.Role",
          "name": "_role",
          "type": "uint8"
        }
      ],
      "name": "assignRole",
      "outputs": [],
      "payable": false,
      "stateMutability": "nonpayable",
      "type": "function"
    },
    {
      "constant": false,
      "inputs": [
        {
          "internalType": "uint256",
          "name": "_numTickets",
          "type": "uint256"
        }
      ],
      "name": "purchaseTickets",
      "outputs": [],
      "payable": true,
      "stateMutability": "payable",
      "type": "function"
    },
    {
      "constant": false,
      "inputs": [],
      "name": "endRaffle",
      "outputs": [],
      "payable": false,
      "stateMutability": "nonpayable",
      "type": "function"
    },
    {
      "constant": false,
      "inputs": [],
      "name": "claimJackpot",
      "outputs": [],
      "payable": false,
      "stateMutability": "nonpayable",
      "type": "function"
    },
    {
      "constant": true,
      "inputs": [],
      "name": "getJackpotAmount",
      "outputs": [
        {
          "internalType": "uint256",
          "name": "",
          "type": "uint256"
        }
      ],
      "payable": false,
      "stateMutability": "view",
      "type": "function"
    },
    {
      "constant": true,
      "inputs": [],
      "name": "getTotalTickets",
      "outputs": [
        {
          "internalType": "uint256",
          "name": "",
          "type": "uint256"
        }
      ],
      "payable": false,
      "stateMutability": "view",
      "type": "function"
    },
    {
      "constant": false,
      "inputs": [
        {
          "internalType": "uint256",
          "name": "timeout",
          "type": "uint256"
        }
      ],
      "name": "handleUnclaimedJackpot",
      "outputs": [],
      "payable": false,
      "stateMutability": "nonpayable",
      "type": "function"
    }
  ],
  "bytecode": "0x608060405234801561001057600080fd5b5060405161165c38038061165c833981810160405260a081101561003357600080fd5b81019080805190602001909291908051906020019092919080519060200190929190805190602001909291908051906020019092919050505060648311156100e3576040517f08c379a000000000000000000000000000000000000000000000000000000000815260040180806020018281038252601a8152602001807f496e76616c6964206a61636b706f742070657263656e7461676500000000000081525060200191505060405180910390fd5b336000806101000a81548173ffffffffffffffffffffffffffffffffffffffff021916908373ffffffffffffffffffffffffffffffffffffffff1602179055506000600860003373ffffffffffffffffffffffffffffffffffffffff1673ffffffffffffffffffffffffffffffffffffffff16815260200190815260200160002060006101000a81548160ff0219169083600181111561017f57fe5b0217905550846001819055508360028190555082600381905550816004819055508060068190555042600581905550505050505061149a806101c26000396000f3fe60806040526004361061012a5760003560e01c806399374642116100ab578063c14bafb11161006f578063c14bafb1146104c2578063c82f6102146104ed578063dfbf53ae1461055c578063e288ea64146105b3578063ed8b6556146105ca578063ee095c0e146105f55761012a565b806399374642146103905780639942b22a146104035780639b8947031461043e578063a127760014610469578063b2f8846b146104975761012a565b806350b44712116100f257806350b4471214610206578063630a195b146102815780636b762daa146102df5780637cf210f11461030e5780638da5cb5b146103395761012a565b806306e8337f1461012f5780630f7b8f651461015a5780631209b1f6146101855780633be539ee146101b05780634e39b1a0146101db575b600080fd5b34801561013b57600080fd5b5061014461060c565b6040518082815260200191505060405180910390f35b34801561016657600080fd5b5061016f610619565b6040518082815260200191505060405180910390f35b34801561019157600080fd5b5061019a61061f565b6040518082815260200191505060405180910390f35b3480156101bc57600080fd5b506101c5610625565b6040518082815260200191505060405180910390f35b3480156101e757600080fd5b506101f061062b565b6040518082815260200191505060405180910390f35b34801561021257600080fd5b5061023f6004803603602081101561022957600080fd5b8101908080359060200190929190505050610631565b604051808273ffffffffffffffffffffffffffffffffffffffff1673ffffffffffffffffffffffffffffffffffffffff16815260200191505060405180910390f35b34801561028d57600080fd5b506102dd600480360360408110156102a457600080fd5b81019080803573ffffffffffffffffffffffffffffffffffffffff169060200190929190803560ff169060200190929190505050610678565b005b3480156102eb57600080fd5b506102f46107b6565b604051808215151515815260200191505060405180910390f35b34801561031a57600080fd5b506103236107c9565b6040518082815260200191505060405180910390f35b34801561034557600080fd5b5061034e6107cf565b604051808273ffffffffffffffffffffffffffffffffffffffff1673ffffffffffffffffffffffffffffffffffffffff16815260200191505060405180910390f35b34801561039c57600080fd5b506103df600480360360208110156103b357600080fd5b81019080803573ffffffffffffffffffffffffffffffffffffffff1690602001909291905050506107f4565b604051808260018111156103ef57fe5b60ff16815260200191505060405180910390f35b34801561040f57600080fd5b5061043c6004803603602081101561042657600080fd5b8101908080359060200190929190505050610814565b005b34801561044a57600080fd5b50610453610a64565b6040518082815260200191505060405180910390f35b6104956004803603602081101561047f57600080fd5b8101908080359060200190929190505050610a6a565b005b3480156104a357600080fd5b506104ac610e6f565b6040518082815260200191505060405180910390f35b3480156104ce57600080fd5b506104d7610e75565b6040518082815260200191505060405180910390f35b3480156104f957600080fd5b506105466004803603604081101561051057600080fd5b81019080803573ffffffffffffffffffffffffffffffffffffffff16906020019092919080359060200190929190505050610e7b565b6040518082815260200191505060405180910390f35b34801561056857600080fd5b50610571610ea9565b604051808273ffffffffffffffffffffffffffffffffffffffff1673ffffffffffffffffffffffffffffffffffffffff16815260200191505060405180910390f35b3480156105bf57600080fd5b506105c8610ecf565b005b3480156105d657600080fd5b506105df6110c0565b6040518082815260200191505060405180910390f35b34801561060157600080fd5b5061060a6110d6565b005b6000600780549050905090565b60025481565b60015481565b60055481565b600c5481565b6007818154811061063e57fe5b906000526020600020016000915090508060000160009054906101000a900473ffffffffffffffffffffffffffffffffffffffff16905081565b600080600181111561068657fe5b600860003373ffffffffffffffffffffffffffffffffffffffff1673ffffffffffffffffffffffffffffffffffffffff16815260200190815260200160002060009054906101000a900460ff1660018111156106de57fe5b14610751576040517f08c379a000000000000000000000000000000000000000000000000000000000815260040180806020018281038252600d8152602001807f4163636573732064656e6965640000000000000000000000000000000000000081525060200191505060405180910390fd5b81600860008573ffffffffffffffffffffffffffffffffffffffff1673ffffffffffffffffffffffffffffffffffffffff16815260200190815260200160002060006101000a81548160ff021916908360018111156107ac57fe5b0217905550505050565b600a60149054906101000a900460ff1681565b60035481565b6000809054906101000a900473ffffffffffffffffffffffffffffffffffffffff1681565b60086020528060005260406000206000915054906101000a900460ff1681565b600080600181111561082257fe5b600860003373ffffffffffffffffffffffffffffffffffffffff1673ffffffffffffffffffffffffffffffffffffffff16815260200190815260200160002060009054906101000a900460ff16600181111561087a57fe5b146108ed576040517f08c379a000000000000000000000000000000000000000000000000000000000815260040180806020018281038252600d8152602001807f4163636573732064656e6965640000000000000000000000000000000000000081525060200191505060405180910390fd5b600a60149054906101000a900460ff1661096f576040517f08c379a00000000000000000000000000000000000000000000000000000000081526004018080602001828103825260148152602001807f526166666c65206e6f7420656e6465642079657400000000000000000000000081525060200191505060405180910390fd5b81600c54014210156109e9576040517f08c379a00000000000000000000000000000000000000000000000000000000081526004018080602001828103825260138152602001807f54696d656f7574206e6f7420726561636865640000000000000000000000000081525060200191505060405180910390fd5b6000809054906101000a900473ffffffffffffffffffffffffffffffffffffffff1673ffffffffffffffffffffffffffffffffffffffff166108fc610a2c6110c0565b9081150290604051600060405180830381858888f19350505050158015610a57573d6000803e3d6000fd5b50610a6061138a565b5050565b60065481565b6001806001811115610a7857fe5b600860003373ffffffffffffffffffffffffffffffffffffffff1673ffffffffffffffffffffffffffffffffffffffff16815260200190815260200160002060009054906101000a900460ff166001811115610ad057fe5b14610b43576040517f08c379a000000000000000000000000000000000000000000000000000000000815260040180806020018281038252600d8152602001807f4163636573732064656e6965640000000000000000000000000000000000000081525060200191505060405180910390fd5b600a60149054906101000a900460ff1615610bc6576040517f08c379a00000000000000000000000000000000000000000000000000000000081526004018080602001828103825260148152602001807f526166666c6520616c726561647920656e64656400000000000000000000000081525060200191505060405180910390fd5b600082118015610bd857506002548211155b610c4a576040517f08c379a00000000000000000000000000000000000000000000000000000000081526004018080602001828103825260158152602001807f496e76616c6964207469636b657420616d6f756e74000000000000000000000081525060200191505060405180910390fd5b60065482600780549050011115610cc9576040517f08c379a00000000000000000000000000000000000000000000000000000000081526004018080602001828103825260138152602001807f45786365656473206d6178207469636b6574730000000000000000000000000081525060200191505060405180910390fd5b60008090505b82811015610e3957600760405180602001604052803373ffffffffffffffffffffffffffffffffffffffff1681525090806001815401808255809150509060018203906000526020600020016000909192909190915060008201518160000160006101000a81548173ffffffffffffffffffffffffffffffffffffffff021916908373ffffffffffffffffffffffffffffffffffffffff160217905550505050600960003373ffffffffffffffffffffffffffffffffffffffff1673ffffffffffffffffffffffffffffffffffffffff16815260200190815260200160002060016007805490500390806001815401808255809150509060018203906000526020600020016000909192909190915055506001600780549050033373ffffffffffffffffffffffffffffffffffffffff167f0668f5b446eb814fe35b3206f43f14bd8567ba04ddaf7a3ee56516929ab22ccb60405160405180910390a38080600101915050610ccf565b5042600b819055506004546005540142101580610e5d575060065460078054905010155b15610e6b57610e6a6110d6565b5b5050565b60045481565b600b5481565b60096020528160005260406000208181548110610e9457fe5b90600052602060002001600091509150505481565b600a60009054906101000a900473ffffffffffffffffffffffffffffffffffffffff1681565b600a60149054906101000a900460ff16610f51576040517f08c379a00000000000000000000000000000000000000000000000000000000081526004018080602001828103825260148152602001807f526166666c65206e6f7420656e6465642079657400000000000000000000000081525060200191505060405180910390fd5b600a60009054906101000a900473ffffffffffffffffffffffffffffffffffffffff1673ffffffffffffffffffffffffffffffffffffffff163373ffffffffffffffffffffffffffffffffffffffff1614611014576040517f08c379a000000000000000000000000000000000000000000000000000000000815260040180806020018281038252600e8152602001807f4e6f74207468652077696e6e657200000000000000000000000000000000000081525060200191505060405180910390fd5b600061101e6110c0565b90503373ffffffffffffffffffffffffffffffffffffffff166108fc829081150290604051600060405180830381858888f19350505050158015611066573d6000803e3d6000fd5b503373ffffffffffffffffffffffffffffffffffffffff167fac60f66c42c2943a0817462a4691f53514a36d94c99cf61e23a6215befcbc428826040518082815260200191505060405180910390a26110bd61138a565b50565b600060646003544702816110d057fe5b04905090565b600a60149054906101000a900460ff1615611159576040517f08c379a00000000000000000000000000000000000000000000000000000000081526004018080602001828103825260148152602001807f526166666c6520616c726561647920656e64656400000000000000000000000081525060200191505060405180910390fd5b6004546005540142101580611175575060065460078054905010155b6111e7576040517f08c379a000000000000000000000000000000000000000000000000000000000815260040180806020018281038252601a8152602001807f526166666c652063616e6e6f7420626520656e6465642079657400000000000081525060200191505060405180910390fd5b600060078054905060014303404430600780549050604051602001808581526020018481526020018373ffffffffffffffffffffffffffffffffffffffff1673ffffffffffffffffffffffffffffffffffffffff1660601b81526014018281526020019450505050506040516020818303038152906040528051906020012060001c8161127057fe5b0690506007818154811061128057fe5b9060005260206000200160000160009054906101000a900473ffffffffffffffffffffffffffffffffffffffff16600a60006101000a81548173ffffffffffffffffffffffffffffffffffffffff021916908373ffffffffffffffffffffffffffffffffffffffff1602179055506001600a60146101000a81548160ff02191690831515021790555042600c81905550600a60009054906101000a900473ffffffffffffffffffffffffffffffffffffffff1673ffffffffffffffffffffffffffffffffffffffff167fb759574c0dac2da3f8ab8dba50cbc5f71203d9acddf839bd97e9247c8efc4e866113726110c0565b6040518082815260200191505060405180910390a250565b6007600061139891906113fe565b6000600a60146101000a81548160ff0219169083151502179055506000600a60006101000a81548173ffffffffffffffffffffffffffffffffffffffff021916908373ffffffffffffffffffffffffffffffffffffffff16021790555042600581905550565b508054600082559060005260206000209081019061141c919061141f565b50565b61146291905b8082111561145e57600080820160006101000a81549073ffffffffffffffffffffffffffffffffffffffff021916905550600101611425565b5090565b9056fea265627a7a72315820dcca02fb6f5500f0e1c63951d974ddde08c25c9306df79a443fae986962bec7464736f6c63430005100032",
  "source": "// SPDX-License-Identifier: MIT\r\npragma solidity >=0.4.22 <0.8.0;\r\ncontract Raffle {\r\n    enum Role { ORGANIZER, BUYER }\r\n\r\n    struct Ticket {\r\n        address owner;\r\n    }\r\n\r\n    address public owner;\r\n    uint public ticketPrice;\r\n    uint public maxTicketsPerTx;\r\n    uint public jackpotPercentage;\r\n    uint public raffleDuration;\r\n    uint public raffleStartTime;\r\n    uint public maxTickets;\r\n\r\n\r\n    Ticket[] public tickets;\r\n    mapping(address => Role) public roles;\r\n    mapping(address => uint[]) public ticketsOf;\r\n\r\n    address public winner;\r\n    bool public raffleEnded;\r\n    uint public lastPurchaseTime;\r\n    uint public unclaimedSince;\r\n\r\n    event TicketPurchased(address indexed buyer, uint indexed ticketId);\r\n    event RaffleEnded(address indexed winner, uint amount);\r\n    event JackpotClaimed(address indexed winner, uint amount);\r\n\r\n    modifier onlyRole(Role _role) {\r\n        require(roles[msg.sender] == _role, \"Access denied\");\r\n        _;\r\n    }\r\n\r\n    modifier raffleActive() {\r\n        require(!raffleEnded, \"Raffle already ended\");\r\n        _;\r\n    }\r\n\r\n    modifier raffleHasEnded() {\r\n        require(raffleEnded, \"Raffle not ended yet\");\r\n        _;\r\n    }\r\n\r\n    constructor(\r\n        uint _ticketPrice,\r\n        uint _maxTicketsPerTx,\r\n        uint _jackpotPercentage,\r\n        uint _raffleDuration,\r\n        uint _maxTickets\r\n    ) public {\r\n        require(_jackpotPercentage <= 100, \"Invalid jackpot percentage\");\r\n        owner = msg.sender;\r\n        roles[msg.sender] = Role.ORGANIZER;\r\n        ticketPrice = _ticketPrice;\r\n        maxTicketsPerTx = _maxTicketsPerTx;\r\n        jackpotPercentage = _jackpotPercentage;\r\n        raffleDuration = _raffleDuration;\r\n        maxTickets = _maxTickets;\r\n        raffleStartTime = block.timestamp;\r\n    }\r\n\r\n\r\n    function assignRole(address _user, Role _role) external onlyRole(Role.ORGANIZER) {\r\n        roles[_user] = _role;\r\n    }\r\n\r\n    function purchaseTickets(uint _numTickets) external payable onlyRole(Role.BUYER) raffleActive {\r\n        require(_numTickets > 0 && _numTickets <= maxTicketsPerTx, \"Invalid ticket amount\");\r\n        require(tickets.length + _numTickets <= maxTickets, \"Exceeds max tickets\");\r\n\r\n        for (uint i = 0; i < _numTickets; i++) {\r\n            tickets.push(Ticket(msg.sender));\r\n            ticketsOf[msg.sender].push(tickets.length - 1);\r\n            emit TicketPurchased(msg.sender, tickets.length - 1);\r\n        }\r\n\r\n        lastPurchaseTime = block.timestamp;\r\n\r\n        // End raffle by condition\r\n        if (block.timestamp >= raffleStartTime + raffleDuration || tickets.length >= maxTickets) {\r\n            endRaffle();\r\n        }\r\n    }\r\n\r\n    function endRaffle() public raffleActive {\r\n        require(\r\n            block.timestamp >= raffleStartTime + raffleDuration || tickets.length >= maxTickets,\r\n            \"Raffle cannot be ended yet\"\r\n        );\r\n        uint randomIndex = uint(keccak256(\r\n            abi.encodePacked(\r\n                blockhash(block.number - 1),\r\n                block.difficulty,\r\n                address(this),\r\n                tickets.length\r\n            )\r\n        )) % tickets.length;\r\n\r\n        winner = tickets[randomIndex].owner;\r\n        raffleEnded = true;\r\n        unclaimedSince = block.timestamp;\r\n\r\n        emit RaffleEnded(winner, getJackpotAmount());\r\n    }\r\n\r\n    function claimJackpot() external raffleHasEnded {\r\n        require(msg.sender == winner, \"Not the winner\");\r\n\r\n        uint amount = getJackpotAmount();\r\n        address(uint160(msg.sender)).transfer(amount);\r\n\r\n        emit JackpotClaimed(msg.sender, amount);\r\n\r\n        resetRaffle();\r\n    }\r\n\r\n    function getJackpotAmount() public view returns (uint) {\r\n        return address(this).balance * jackpotPercentage / 100;\r\n    }\r\n\r\n    function getTotalTickets() public view returns (uint) {\r\n        return tickets.length;\r\n    }\r\n\r\n    function resetRaffle() internal {\r\n        delete tickets;\r\n        raffleEnded = false;\r\n        winner = address(0);\r\n        raffleStartTime = block.timestamp;\r\n    }\r\n\r\n    function handleUnclaimedJackpot(uint timeout) external onlyRole(Role.ORGANIZER) raffleHasEnded {\r\n        require(block.timestamp >= unclaimedSince + timeout, \"Timeout not reached\");\r\n        address(uint160(owner)).transfer(getJackpotAmount());\r\n        resetRaffle();\r\n    }\r\n}\r\n",
  "sourcePath": "C:\\Users\\somal\\Documents\\Semester_08\\Blockchain\\B2B-Block-Chain-Competition\\contracts\\Raffle.sol",
  "compiler": {
    "name": "solc",
    "version": "0.5.16+commit.9c3226ce.Emscripten.clang"
  },
  "schemaVersion": "3.4.16",
  "updatedAt": "2025-04-19T09:04:53.674Z",
  "networkType": "ethereum",
  "devdoc": {
    "methods": {}
  },
  "userdoc": {
    "methods": {}
  }
}