{
  "contractName": "Raffle",
  "abi": [
    {
      "inputs": [
        {
          "internalType": "uint256",
          "name": "_ticketPrice",
          "type": "uint256"
        },
        {
          "internalType": "uint256",
          "name": "_maxTicketsPerTx",
          "type": "uint256"
        },
        {
          "internalType": "uint256",
          "name": "_jackpotPercentage",
          "type": "uint256"
        },
        {
          "internalType": "uint256",
          "name": "_raffleDuration",
          "type": "uint256"
        }
      ],
      "payable": false,
      "stateMutability": "nonpayable",
      "type": "constructor"
    },
    {
      "anonymous": false,
      "inputs": [
        {
          "indexed": true,
          "internalType": "address",
          "name": "winner",
          "type": "address"
        },
        {
          "indexed": false,
          "internalType": "uint256",
          "name": "amount",
          "type": "uint256"
        }
      ],
      "name": "JackpotClaimed",
      "type": "event"
    },
    {
      "anonymous": false,
      "inputs": [
        {
          "indexed": true,
          "internalType": "address",
          "name": "winner",
          "type": "address"
        },
        {
          "indexed": false,
          "internalType": "uint256",
          "name": "amount",
          "type": "uint256"
        }
      ],
      "name": "RaffleEnded",
      "type": "event"
    },
    {
      "anonymous": false,
      "inputs": [
        {
          "indexed": true,
          "internalType": "address",
          "name": "buyer",
          "type": "address"
        },
        {
          "indexed": true,
          "internalType": "uint256",
          "name": "ticketId",
          "type": "uint256"
        }
      ],
      "name": "TicketPurchased",
      "type": "event"
    },
    {
      "constant": true,
      "inputs": [],
      "name": "jackpotPercentage",
      "outputs": [
        {
          "internalType": "uint256",
          "name": "",
          "type": "uint256"
        }
      ],
      "payable": false,
      "stateMutability": "view",
      "type": "function"
    },
    {
      "constant": true,
      "inputs": [],
      "name": "lastPurchaseTime",
      "outputs": [
        {
          "internalType": "uint256",
          "name": "",
          "type": "uint256"
        }
      ],
      "payable": false,
      "stateMutability": "view",
      "type": "function"
    },
    {
      "constant": true,
      "inputs": [],
      "name": "maxTicketsPerTx",
      "outputs": [
        {
          "internalType": "uint256",
          "name": "",
          "type": "uint256"
        }
      ],
      "payable": false,
      "stateMutability": "view",
      "type": "function"
    },
    {
      "constant": true,
      "inputs": [],
      "name": "owner",
      "outputs": [
        {
          "internalType": "address",
          "name": "",
          "type": "address"
        }
      ],
      "payable": false,
      "stateMutability": "view",
      "type": "function"
    },
    {
      "constant": true,
      "inputs": [],
      "name": "raffleDuration",
      "outputs": [
        {
          "internalType": "uint256",
          "name": "",
          "type": "uint256"
        }
      ],
      "payable": false,
      "stateMutability": "view",
      "type": "function"
    },
    {
      "constant": true,
      "inputs": [],
      "name": "raffleEnded",
      "outputs": [
        {
          "internalType": "bool",
          "name": "",
          "type": "bool"
        }
      ],
      "payable": false,
      "stateMutability": "view",
      "type": "function"
    },
    {
      "constant": true,
      "inputs": [],
      "name": "raffleStartTime",
      "outputs": [
        {
          "internalType": "uint256",
          "name": "",
          "type": "uint256"
        }
      ],
      "payable": false,
      "stateMutability": "view",
      "type": "function"
    },
    {
      "constant": true,
      "inputs": [
        {
          "internalType": "address",
          "name": "",
          "type": "address"
        }
      ],
      "name": "roles",
      "outputs": [
        {
          "internalType": "enum Raffle.Role",
          "name": "",
          "type": "uint8"
        }
      ],
      "payable": false,
      "stateMutability": "view",
      "type": "function"
    },
    {
      "constant": true,
      "inputs": [],
      "name": "ticketPrice",
      "outputs": [
        {
          "internalType": "uint256",
          "name": "",
          "type": "uint256"
        }
      ],
      "payable": false,
      "stateMutability": "view",
      "type": "function"
    },
    {
      "constant": true,
      "inputs": [
        {
          "internalType": "uint256",
          "name": "",
          "type": "uint256"
        }
      ],
      "name": "tickets",
      "outputs": [
        {
          "internalType": "address",
          "name": "owner",
          "type": "address"
        }
      ],
      "payable": false,
      "stateMutability": "view",
      "type": "function"
    },
    {
      "constant": true,
      "inputs": [
        {
          "internalType": "address",
          "name": "",
          "type": "address"
        },
        {
          "internalType": "uint256",
          "name": "",
          "type": "uint256"
        }
      ],
      "name": "ticketsOf",
      "outputs": [
        {
          "internalType": "uint256",
          "name": "",
          "type": "uint256"
        }
      ],
      "payable": false,
      "stateMutability": "view",
      "type": "function"
    },
    {
      "constant": true,
      "inputs": [],
      "name": "unclaimedSince",
      "outputs": [
        {
          "internalType": "uint256",
          "name": "",
          "type": "uint256"
        }
      ],
      "payable": false,
      "stateMutability": "view",
      "type": "function"
    },
    {
      "constant": true,
      "inputs": [],
      "name": "winner",
      "outputs": [
        {
          "internalType": "address",
          "name": "",
          "type": "address"
        }
      ],
      "payable": false,
      "stateMutability": "view",
      "type": "function"
    },
    {
      "constant": false,
      "inputs": [
        {
          "internalType": "address",
          "name": "_user",
          "type": "address"
        },
        {
          "internalType": "enum Raffle.Role",
          "name": "_role",
          "type": "uint8"
        }
      ],
      "name": "assignRole",
      "outputs": [],
      "payable": false,
      "stateMutability": "nonpayable",
      "type": "function"
    },
    {
      "constant": false,
      "inputs": [
        {
          "internalType": "uint256",
          "name": "_numTickets",
          "type": "uint256"
        }
      ],
      "name": "purchaseTickets",
      "outputs": [],
      "payable": true,
      "stateMutability": "payable",
      "type": "function"
    },
    {
      "constant": false,
      "inputs": [],
      "name": "endRaffle",
      "outputs": [],
      "payable": false,
      "stateMutability": "nonpayable",
      "type": "function"
    },
    {
      "constant": false,
      "inputs": [],
      "name": "claimJackpot",
      "outputs": [],
      "payable": false,
      "stateMutability": "nonpayable",
      "type": "function"
    },
    {
      "constant": true,
      "inputs": [],
      "name": "getJackpotAmount",
      "outputs": [
        {
          "internalType": "uint256",
          "name": "",
          "type": "uint256"
        }
      ],
      "payable": false,
      "stateMutability": "view",
      "type": "function"
    },
    {
      "constant": true,
      "inputs": [],
      "name": "getTotalTickets",
      "outputs": [
        {
          "internalType": "uint256",
          "name": "",
          "type": "uint256"
        }
      ],
      "payable": false,
      "stateMutability": "view",
      "type": "function"
    },
    {
      "constant": false,
      "inputs": [
        {
          "internalType": "uint256",
          "name": "timeout",
          "type": "uint256"
        }
      ],
      "name": "handleUnclaimedJackpot",
      "outputs": [],
      "payable": false,
      "stateMutability": "nonpayable",
      "type": "function"
    }
  ],
  "bytecode": "0x608060405234801561001057600080fd5b5060405161165d38038061165d8339818101604052608081101561003357600080fd5b810190808051906020019092919080519060200190929190805190602001909291908051906020019092919050505060648211156100d9576040517f08c379a000000000000000000000000000000000000000000000000000000000815260040180806020018281038252601a8152602001807f496e76616c6964206a61636b706f742070657263656e7461676500000000000081525060200191505060405180910390fd5b336000806101000a81548173ffffffffffffffffffffffffffffffffffffffff021916908373ffffffffffffffffffffffffffffffffffffffff1602179055506000600760003373ffffffffffffffffffffffffffffffffffffffff1673ffffffffffffffffffffffffffffffffffffffff16815260200190815260200160002060006101000a81548160ff0219169083600181111561017557fe5b02179055508360018190555082600281905550816003819055508060048190555042600581905550505050506114ad806101b06000396000f3fe60806040526004361061011f5760003560e01c806399374642116100a0578063c82f610211610064578063c82f6102146104b7578063dfbf53ae14610526578063e288ea641461057d578063ed8b655614610594578063ee095c0e146105bf5761011f565b806399374642146103855780639942b22a146103f8578063a127760014610433578063b2f8846b14610461578063c14bafb11461048c5761011f565b806350b44712116100e757806350b44712146101fb578063630a195b146102765780636b762daa146102d45780637cf210f1146103035780638da5cb5b1461032e5761011f565b806306e8337f146101245780630f7b8f651461014f5780631209b1f61461017a5780633be539ee146101a55780634e39b1a0146101d0575b600080fd5b34801561013057600080fd5b506101396105d6565b6040518082815260200191505060405180910390f35b34801561015b57600080fd5b506101646105e3565b6040518082815260200191505060405180910390f35b34801561018657600080fd5b5061018f6105e9565b6040518082815260200191505060405180910390f35b3480156101b157600080fd5b506101ba6105ef565b6040518082815260200191505060405180910390f35b3480156101dc57600080fd5b506101e56105f5565b6040518082815260200191505060405180910390f35b34801561020757600080fd5b506102346004803603602081101561021e57600080fd5b81019080803590602001909291905050506105fb565b604051808273ffffffffffffffffffffffffffffffffffffffff1673ffffffffffffffffffffffffffffffffffffffff16815260200191505060405180910390f35b34801561028257600080fd5b506102d26004803603604081101561029957600080fd5b81019080803573ffffffffffffffffffffffffffffffffffffffff169060200190929190803560ff169060200190929190505050610642565b005b3480156102e057600080fd5b506102e9610780565b604051808215151515815260200191505060405180910390f35b34801561030f57600080fd5b50610318610793565b6040518082815260200191505060405180910390f35b34801561033a57600080fd5b50610343610799565b604051808273ffffffffffffffffffffffffffffffffffffffff1673ffffffffffffffffffffffffffffffffffffffff16815260200191505060405180910390f35b34801561039157600080fd5b506103d4600480360360208110156103a857600080fd5b81019080803573ffffffffffffffffffffffffffffffffffffffff1690602001909291905050506107be565b604051808260018111156103e457fe5b60ff16815260200191505060405180910390f35b34801561040457600080fd5b506104316004803603602081101561041b57600080fd5b81019080803590602001909291905050506107de565b005b61045f6004803603602081101561044957600080fd5b8101908080359060200190929190505050610a2e565b005b34801561046d57600080fd5b50610476610e19565b6040518082815260200191505060405180910390f35b34801561049857600080fd5b506104a1610e1f565b6040518082815260200191505060405180910390f35b3480156104c357600080fd5b50610510600480360360408110156104da57600080fd5b81019080803573ffffffffffffffffffffffffffffffffffffffff16906020019092919080359060200190929190505050610e25565b6040518082815260200191505060405180910390f35b34801561053257600080fd5b5061053b610e53565b604051808273ffffffffffffffffffffffffffffffffffffffff1673ffffffffffffffffffffffffffffffffffffffff16815260200191505060405180910390f35b34801561058957600080fd5b50610592610e79565b005b3480156105a057600080fd5b506105a961106a565b6040518082815260200191505060405180910390f35b3480156105cb57600080fd5b506105d4611080565b005b6000600680549050905090565b60025481565b60015481565b60055481565b600b5481565b6006818154811061060857fe5b906000526020600020016000915090508060000160009054906101000a900473ffffffffffffffffffffffffffffffffffffffff16905081565b600080600181111561065057fe5b600760003373ffffffffffffffffffffffffffffffffffffffff1673ffffffffffffffffffffffffffffffffffffffff16815260200190815260200160002060009054906101000a900460ff1660018111156106a857fe5b1461071b576040517f08c379a000000000000000000000000000000000000000000000000000000000815260040180806020018281038252600d8152602001807f4163636573732064656e6965640000000000000000000000000000000000000081525060200191505060405180910390fd5b81600760008573ffffffffffffffffffffffffffffffffffffffff1673ffffffffffffffffffffffffffffffffffffffff16815260200190815260200160002060006101000a81548160ff0219169083600181111561077657fe5b0217905550505050565b600960149054906101000a900460ff1681565b60035481565b6000809054906101000a900473ffffffffffffffffffffffffffffffffffffffff1681565b60076020528060005260406000206000915054906101000a900460ff1681565b60008060018111156107ec57fe5b600760003373ffffffffffffffffffffffffffffffffffffffff1673ffffffffffffffffffffffffffffffffffffffff16815260200190815260200160002060009054906101000a900460ff16600181111561084457fe5b146108b7576040517f08c379a000000000000000000000000000000000000000000000000000000000815260040180806020018281038252600d8152602001807f4163636573732064656e6965640000000000000000000000000000000000000081525060200191505060405180910390fd5b600960149054906101000a900460ff16610939576040517f08c379a00000000000000000000000000000000000000000000000000000000081526004018080602001828103825260148152602001807f526166666c65206e6f7420656e6465642079657400000000000000000000000081525060200191505060405180910390fd5b81600b54014210156109b3576040517f08c379a00000000000000000000000000000000000000000000000000000000081526004018080602001828103825260138152602001807f54696d656f7574206e6f7420726561636865640000000000000000000000000081525060200191505060405180910390fd5b6000809054906101000a900473ffffffffffffffffffffffffffffffffffffffff1673ffffffffffffffffffffffffffffffffffffffff166108fc6109f661106a565b9081150290604051600060405180830381858888f19350505050158015610a21573d6000803e3d6000fd5b50610a2a61139d565b5050565b6001806001811115610a3c57fe5b600760003373ffffffffffffffffffffffffffffffffffffffff1673ffffffffffffffffffffffffffffffffffffffff16815260200190815260200160002060009054906101000a900460ff166001811115610a9457fe5b14610b07576040517f08c379a000000000000000000000000000000000000000000000000000000000815260040180806020018281038252600d8152602001807f4163636573732064656e6965640000000000000000000000000000000000000081525060200191505060405180910390fd5b600960149054906101000a900460ff1615610b8a576040517f08c379a00000000000000000000000000000000000000000000000000000000081526004018080602001828103825260148152602001807f526166666c6520616c726561647920656e64656400000000000000000000000081525060200191505060405180910390fd5b600082118015610b9c57506002548211155b610c0e576040517f08c379a00000000000000000000000000000000000000000000000000000000081526004018080602001828103825260158152602001807f496e76616c6964207469636b657420616d6f756e74000000000000000000000081525060200191505060405180910390fd5b60015482023414610c87576040517f08c379a00000000000000000000000000000000000000000000000000000000081526004018080602001828103825260148152602001807f496e636f72726563742045746865722073656e7400000000000000000000000081525060200191505060405180910390fd5b60008090505b82811015610df757600660405180602001604052803373ffffffffffffffffffffffffffffffffffffffff1681525090806001815401808255809150509060018203906000526020600020016000909192909190915060008201518160000160006101000a81548173ffffffffffffffffffffffffffffffffffffffff021916908373ffffffffffffffffffffffffffffffffffffffff160217905550505050600860003373ffffffffffffffffffffffffffffffffffffffff1673ffffffffffffffffffffffffffffffffffffffff16815260200190815260200160002060016006805490500390806001815401808255809150509060018203906000526020600020016000909192909190915055506001600680549050033373ffffffffffffffffffffffffffffffffffffffff167f0668f5b446eb814fe35b3206f43f14bd8567ba04ddaf7a3ee56516929ab22ccb60405160405180910390a38080600101915050610c8d565b5042600a81905550600454600554014210610e1557610e14611080565b5b5050565b60045481565b600a5481565b60086020528160005260406000208181548110610e3e57fe5b90600052602060002001600091509150505481565b600960009054906101000a900473ffffffffffffffffffffffffffffffffffffffff1681565b600960149054906101000a900460ff16610efb576040517f08c379a00000000000000000000000000000000000000000000000000000000081526004018080602001828103825260148152602001807f526166666c65206e6f7420656e6465642079657400000000000000000000000081525060200191505060405180910390fd5b600960009054906101000a900473ffffffffffffffffffffffffffffffffffffffff1673ffffffffffffffffffffffffffffffffffffffff163373ffffffffffffffffffffffffffffffffffffffff1614610fbe576040517f08c379a000000000000000000000000000000000000000000000000000000000815260040180806020018281038252600e8152602001807f4e6f74207468652077696e6e657200000000000000000000000000000000000081525060200191505060405180910390fd5b6000610fc861106a565b90503373ffffffffffffffffffffffffffffffffffffffff166108fc829081150290604051600060405180830381858888f19350505050158015611010573d6000803e3d6000fd5b503373ffffffffffffffffffffffffffffffffffffffff167fac60f66c42c2943a0817462a4691f53514a36d94c99cf61e23a6215befcbc428826040518082815260200191505060405180910390a261106761139d565b50565b6000606460035447028161107a57fe5b04905090565b600960149054906101000a900460ff1615611103576040517f08c379a00000000000000000000000000000000000000000000000000000000081526004018080602001828103825260148152602001807f526166666c6520616c726561647920656e64656400000000000000000000000081525060200191505060405180910390fd5b6004546005540142101561117f576040517f08c379a00000000000000000000000000000000000000000000000000000000081526004018080602001828103825260178152602001807f526166666c65206475726174696f6e206e6f74206d657400000000000000000081525060200191505060405180910390fd5b6000600680549050116111fa576040517f08c379a000000000000000000000000000000000000000000000000000000000815260040180806020018281038252600f8152602001807f4e6f207469636b65747320736f6c64000000000000000000000000000000000081525060200191505060405180910390fd5b600060068054905060014303404430600680549050604051602001808581526020018481526020018373ffffffffffffffffffffffffffffffffffffffff1673ffffffffffffffffffffffffffffffffffffffff1660601b81526014018281526020019450505050506040516020818303038152906040528051906020012060001c8161128357fe5b0690506006818154811061129357fe5b9060005260206000200160000160009054906101000a900473ffffffffffffffffffffffffffffffffffffffff16600960006101000a81548173ffffffffffffffffffffffffffffffffffffffff021916908373ffffffffffffffffffffffffffffffffffffffff1602179055506001600960146101000a81548160ff02191690831515021790555042600b81905550600960009054906101000a900473ffffffffffffffffffffffffffffffffffffffff1673ffffffffffffffffffffffffffffffffffffffff167fb759574c0dac2da3f8ab8dba50cbc5f71203d9acddf839bd97e9247c8efc4e8661138561106a565b6040518082815260200191505060405180910390a250565b600660006113ab9190611411565b6000600960146101000a81548160ff0219169083151502179055506000600960006101000a81548173ffffffffffffffffffffffffffffffffffffffff021916908373ffffffffffffffffffffffffffffffffffffffff16021790555042600581905550565b508054600082559060005260206000209081019061142f9190611432565b50565b61147591905b8082111561147157600080820160006101000a81549073ffffffffffffffffffffffffffffffffffffffff021916905550600101611438565b5090565b9056fea265627a7a723158205219f0224149f1e1ce3c87e7026210252d20cdad4cd7873f812b7c1e360a32d764736f6c63430005100032",
  "source": "// SPDX-License-Identifier: MIT\r\npragma solidity >=0.4.22 <0.8.0;\r\ncontract Raffle {\r\n    enum Role { ORGANIZER, BUYER }\r\n\r\n    struct Ticket {\r\n        address owner;\r\n    }\r\n\r\n    address public owner;\r\n    uint public ticketPrice;\r\n    uint public maxTicketsPerTx;\r\n    uint public jackpotPercentage;\r\n    uint public raffleDuration;\r\n    uint public raffleStartTime;\r\n\r\n    Ticket[] public tickets;\r\n    mapping(address => Role) public roles;\r\n    mapping(address => uint[]) public ticketsOf;\r\n\r\n    address public winner;\r\n    bool public raffleEnded;\r\n    uint public lastPurchaseTime;\r\n    uint public unclaimedSince;\r\n\r\n    event TicketPurchased(address indexed buyer, uint indexed ticketId);\r\n    event RaffleEnded(address indexed winner, uint amount);\r\n    event JackpotClaimed(address indexed winner, uint amount);\r\n\r\n    modifier onlyRole(Role _role) {\r\n        require(roles[msg.sender] == _role, \"Access denied\");\r\n        _;\r\n    }\r\n\r\n    modifier raffleActive() {\r\n        require(!raffleEnded, \"Raffle already ended\");\r\n        _;\r\n    }\r\n\r\n    modifier raffleHasEnded() {\r\n        require(raffleEnded, \"Raffle not ended yet\");\r\n        _;\r\n    }\r\n\r\n    constructor(\r\n        uint _ticketPrice,\r\n        uint _maxTicketsPerTx,\r\n        uint _jackpotPercentage,\r\n        uint _raffleDuration // in seconds\r\n    ) public {\r\n        require(_jackpotPercentage <= 100, \"Invalid jackpot percentage\");\r\n        owner = msg.sender;\r\n        roles[msg.sender] = Role.ORGANIZER;\r\n        ticketPrice = _ticketPrice;\r\n        maxTicketsPerTx = _maxTicketsPerTx;\r\n        jackpotPercentage = _jackpotPercentage;\r\n        raffleDuration = _raffleDuration;\r\n        raffleStartTime = block.timestamp;\r\n    }\r\n\r\n    function assignRole(address _user, Role _role) external onlyRole(Role.ORGANIZER) {\r\n        roles[_user] = _role;\r\n    }\r\n\r\n    function purchaseTickets(uint _numTickets) external payable onlyRole(Role.BUYER) raffleActive {\r\n        require(_numTickets > 0 && _numTickets <= maxTicketsPerTx, \"Invalid ticket amount\");\r\n        require(msg.value == _numTickets * ticketPrice, \"Incorrect Ether sent\");\r\n\r\n        for (uint i = 0; i < _numTickets; i++) {\r\n            tickets.push(Ticket(msg.sender));\r\n            ticketsOf[msg.sender].push(tickets.length - 1);\r\n            emit TicketPurchased(msg.sender, tickets.length - 1);\r\n        }\r\n\r\n        lastPurchaseTime = block.timestamp;\r\n\r\n        // Check for time-based end\r\n        if (block.timestamp >= raffleStartTime + raffleDuration) {\r\n            endRaffle();\r\n        }\r\n    }\r\n\r\n    function endRaffle() public raffleActive {\r\n        require(block.timestamp >= raffleStartTime + raffleDuration, \"Raffle duration not met\");\r\n        require(tickets.length > 0, \"No tickets sold\");\r\n\r\n        uint randomIndex = uint(keccak256(\r\n            abi.encodePacked(\r\n                blockhash(block.number - 1),\r\n                block.difficulty,\r\n                address(this),\r\n                tickets.length\r\n            )\r\n        )) % tickets.length;\r\n\r\n        winner = tickets[randomIndex].owner;\r\n        raffleEnded = true;\r\n        unclaimedSince = block.timestamp;\r\n\r\n        emit RaffleEnded(winner, getJackpotAmount());\r\n    }\r\n\r\n    function claimJackpot() external raffleHasEnded {\r\n        require(msg.sender == winner, \"Not the winner\");\r\n\r\n        uint amount = getJackpotAmount();\r\n        address(uint160(msg.sender)).transfer(amount);\r\n\r\n        emit JackpotClaimed(msg.sender, amount);\r\n\r\n        resetRaffle();\r\n    }\r\n\r\n    function getJackpotAmount() public view returns (uint) {\r\n        return address(this).balance * jackpotPercentage / 100;\r\n    }\r\n\r\n    function getTotalTickets() public view returns (uint) {\r\n        return tickets.length;\r\n    }\r\n\r\n    function resetRaffle() internal {\r\n        delete tickets;\r\n        raffleEnded = false;\r\n        winner = address(0);\r\n        raffleStartTime = block.timestamp;\r\n    }\r\n\r\n    function handleUnclaimedJackpot(uint timeout) external onlyRole(Role.ORGANIZER) raffleHasEnded {\r\n        require(block.timestamp >= unclaimedSince + timeout, \"Timeout not reached\");\r\n        address(uint160(owner)).transfer(getJackpotAmount());\r\n        resetRaffle();\r\n    }\r\n}\r\n",
  "sourcePath": "C:\\Users\\somal\\Documents\\Semester_08\\Blockchain\\B2B-Block-Chain-Competition\\contracts\\Raffle.sol",
  "compiler": {
    "name": "solc",
    "version": "0.5.16+commit.9c3226ce.Emscripten.clang"
  },
  "schemaVersion": "3.4.16",
  "updatedAt": "2025-04-19T08:19:15.651Z",
  "networkType": "ethereum",
  "devdoc": {
    "methods": {}
  },
  "userdoc": {
    "methods": {}
  }
}